{
  "_format": "hh-sol-artifact-1",
  "contractName": "StadiumNFT",
  "sourceName": "contracts/StadiumNFT.sol",
  "abi": [
    {
      "inputs": [
        {
          "internalType": "string",
          "name": "_name",
          "type": "string"
        },
        {
          "internalType": "string",
          "name": "_symbol",
          "type": "string"
        },
        {
          "internalType": "string",
          "name": "_initBaseURI",
          "type": "string"
        },
        {
          "internalType": "uint256",
          "name": "_maxSupply",
          "type": "uint256"
        }
      ],
      "stateMutability": "nonpayable",
      "type": "constructor"
    },
    {
      "anonymous": false,
      "inputs": [
        {
          "indexed": true,
          "internalType": "address",
          "name": "previousAdmin",
          "type": "address"
        },
        {
          "indexed": true,
          "internalType": "address",
          "name": "newAdmin",
          "type": "address"
        }
      ],
      "name": "AdminTransferred",
      "type": "event"
    },
    {
      "anonymous": false,
      "inputs": [
        {
          "indexed": true,
          "internalType": "address",
          "name": "owner",
          "type": "address"
        },
        {
          "indexed": true,
          "internalType": "address",
          "name": "approved",
          "type": "address"
        },
        {
          "indexed": true,
          "internalType": "uint256",
          "name": "tokenId",
          "type": "uint256"
        }
      ],
      "name": "Approval",
      "type": "event"
    },
    {
      "anonymous": false,
      "inputs": [
        {
          "indexed": true,
          "internalType": "address",
          "name": "owner",
          "type": "address"
        },
        {
          "indexed": true,
          "internalType": "address",
          "name": "operator",
          "type": "address"
        },
        {
          "indexed": false,
          "internalType": "bool",
          "name": "approved",
          "type": "bool"
        }
      ],
      "name": "ApprovalForAll",
      "type": "event"
    },
    {
      "anonymous": false,
      "inputs": [
        {
          "indexed": false,
          "internalType": "uint256",
          "name": "_imgId",
          "type": "uint256"
        },
        {
          "indexed": false,
          "internalType": "string",
          "name": "_url",
          "type": "string"
        }
      ],
      "name": "ImgChanged",
      "type": "event"
    },
    {
      "anonymous": false,
      "inputs": [
        {
          "indexed": true,
          "internalType": "address",
          "name": "previousOwner",
          "type": "address"
        },
        {
          "indexed": true,
          "internalType": "address",
          "name": "newOwner",
          "type": "address"
        }
      ],
      "name": "OwnershipTransferred",
      "type": "event"
    },
    {
      "anonymous": false,
      "inputs": [
        {
          "indexed": true,
          "internalType": "address",
          "name": "from",
          "type": "address"
        },
        {
          "indexed": true,
          "internalType": "address",
          "name": "to",
          "type": "address"
        },
        {
          "indexed": true,
          "internalType": "uint256",
          "name": "tokenId",
          "type": "uint256"
        }
      ],
      "name": "Transfer",
      "type": "event"
    },
    {
      "inputs": [],
      "name": "admin",
      "outputs": [
        {
          "internalType": "address",
          "name": "",
          "type": "address"
        }
      ],
      "stateMutability": "view",
      "type": "function"
    },
    {
      "inputs": [
        {
          "internalType": "address",
          "name": "to",
          "type": "address"
        },
        {
          "internalType": "uint256",
          "name": "tokenId",
          "type": "uint256"
        }
      ],
      "name": "approve",
      "outputs": [],
      "stateMutability": "nonpayable",
      "type": "function"
    },
    {
      "inputs": [
        {
          "internalType": "address",
          "name": "owner",
          "type": "address"
        }
      ],
      "name": "balanceOf",
      "outputs": [
        {
          "internalType": "uint256",
          "name": "",
          "type": "uint256"
        }
      ],
      "stateMutability": "view",
      "type": "function"
    },
    {
      "inputs": [],
      "name": "baseExtension",
      "outputs": [
        {
          "internalType": "string",
          "name": "",
          "type": "string"
        }
      ],
      "stateMutability": "view",
      "type": "function"
    },
    {
      "inputs": [],
      "name": "baseURI",
      "outputs": [
        {
          "internalType": "string",
          "name": "",
          "type": "string"
        }
      ],
      "stateMutability": "view",
      "type": "function"
    },
    {
      "inputs": [
        {
          "internalType": "uint256",
          "name": "_tokenId",
          "type": "uint256"
        },
        {
          "internalType": "string",
          "name": "_img",
          "type": "string"
        }
      ],
      "name": "changeImg",
      "outputs": [],
      "stateMutability": "nonpayable",
      "type": "function"
    },
    {
      "inputs": [
        {
          "internalType": "uint256",
          "name": "_tokenId",
          "type": "uint256"
        },
        {
          "internalType": "string",
          "name": "_url",
          "type": "string"
        }
      ],
      "name": "changeUrl",
      "outputs": [],
      "stateMutability": "nonpayable",
      "type": "function"
    },
    {
      "inputs": [],
      "name": "cost",
      "outputs": [
        {
          "internalType": "uint256",
          "name": "",
          "type": "uint256"
        }
      ],
      "stateMutability": "view",
      "type": "function"
    },
    {
      "inputs": [
        {
          "internalType": "uint256",
          "name": "tokenId",
          "type": "uint256"
        }
      ],
      "name": "getApproved",
      "outputs": [
        {
          "internalType": "address",
          "name": "",
          "type": "address"
        }
      ],
      "stateMutability": "view",
      "type": "function"
    },
    {
      "inputs": [
        {
          "internalType": "uint256",
          "name": "_tokenId",
          "type": "uint256"
        }
      ],
      "name": "getPieceInfo",
      "outputs": [
        {
          "components": [
            {
              "internalType": "string",
              "name": "img",
              "type": "string"
            },
            {
              "internalType": "string",
              "name": "url",
              "type": "string"
            }
          ],
          "internalType": "struct StadiumNFT.MapPiece",
          "name": "",
          "type": "tuple"
        }
      ],
      "stateMutability": "view",
      "type": "function"
    },
    {
      "inputs": [],
      "name": "getStadium",
      "outputs": [
        {
          "internalType": "address[]",
          "name": "",
          "type": "address[]"
        },
        {
          "internalType": "string[]",
          "name": "",
          "type": "string[]"
        },
        {
          "internalType": "string[]",
          "name": "",
          "type": "string[]"
        }
      ],
      "stateMutability": "view",
      "type": "function"
    },
    {
      "inputs": [
        {
          "internalType": "address",
          "name": "owner",
          "type": "address"
        },
        {
          "internalType": "address",
          "name": "operator",
          "type": "address"
        }
      ],
      "name": "isApprovedForAll",
      "outputs": [
        {
          "internalType": "bool",
          "name": "",
          "type": "bool"
        }
      ],
      "stateMutability": "view",
      "type": "function"
    },
    {
      "inputs": [],
      "name": "maxSupply",
      "outputs": [
        {
          "internalType": "uint256",
          "name": "",
          "type": "uint256"
        }
      ],
      "stateMutability": "view",
      "type": "function"
    },
    {
      "inputs": [
        {
          "internalType": "address",
          "name": "_to",
          "type": "address"
        },
        {
          "internalType": "uint256",
          "name": "_tokenToMint",
          "type": "uint256"
        }
      ],
      "name": "mint",
      "outputs": [],
      "stateMutability": "payable",
      "type": "function"
    },
    {
      "inputs": [],
      "name": "name",
      "outputs": [
        {
          "internalType": "string",
          "name": "",
          "type": "string"
        }
      ],
      "stateMutability": "view",
      "type": "function"
    },
    {
      "inputs": [],
      "name": "owner",
      "outputs": [
        {
          "internalType": "address",
          "name": "",
          "type": "address"
        }
      ],
      "stateMutability": "view",
      "type": "function"
    },
    {
      "inputs": [
        {
          "internalType": "uint256",
          "name": "tokenId",
          "type": "uint256"
        }
      ],
      "name": "ownerOf",
      "outputs": [
        {
          "internalType": "address",
          "name": "",
          "type": "address"
        }
      ],
      "stateMutability": "view",
      "type": "function"
    },
    {
      "inputs": [
        {
          "internalType": "bool",
          "name": "_state",
          "type": "bool"
        }
      ],
      "name": "pause",
      "outputs": [],
      "stateMutability": "nonpayable",
      "type": "function"
    },
    {
      "inputs": [],
      "name": "paused",
      "outputs": [
        {
          "internalType": "bool",
          "name": "",
          "type": "bool"
        }
      ],
      "stateMutability": "view",
      "type": "function"
    },
    {
      "inputs": [],
      "name": "renounceOwnership",
      "outputs": [],
      "stateMutability": "nonpayable",
      "type": "function"
    },
    {
      "inputs": [
        {
          "internalType": "address",
          "name": "from",
          "type": "address"
        },
        {
          "internalType": "address",
          "name": "to",
          "type": "address"
        },
        {
          "internalType": "uint256",
          "name": "tokenId",
          "type": "uint256"
        }
      ],
      "name": "safeTransferFrom",
      "outputs": [],
      "stateMutability": "nonpayable",
      "type": "function"
    },
    {
      "inputs": [
        {
          "internalType": "address",
          "name": "from",
          "type": "address"
        },
        {
          "internalType": "address",
          "name": "to",
          "type": "address"
        },
        {
          "internalType": "uint256",
          "name": "tokenId",
          "type": "uint256"
        },
        {
          "internalType": "bytes",
          "name": "_data",
          "type": "bytes"
        }
      ],
      "name": "safeTransferFrom",
      "outputs": [],
      "stateMutability": "nonpayable",
      "type": "function"
    },
    {
      "inputs": [
        {
          "internalType": "address",
          "name": "operator",
          "type": "address"
        },
        {
          "internalType": "bool",
          "name": "approved",
          "type": "bool"
        }
      ],
      "name": "setApprovalForAll",
      "outputs": [],
      "stateMutability": "nonpayable",
      "type": "function"
    },
    {
      "inputs": [
        {
          "internalType": "string",
          "name": "_newBaseExtension",
          "type": "string"
        }
      ],
      "name": "setBaseExtension",
      "outputs": [],
      "stateMutability": "nonpayable",
      "type": "function"
    },
    {
      "inputs": [
        {
          "internalType": "string",
          "name": "_newBaseURI",
          "type": "string"
        }
      ],
      "name": "setBaseURI",
      "outputs": [],
      "stateMutability": "nonpayable",
      "type": "function"
    },
    {
      "inputs": [
        {
          "internalType": "uint256",
          "name": "_newCost",
          "type": "uint256"
        }
      ],
      "name": "setCost",
      "outputs": [],
      "stateMutability": "nonpayable",
      "type": "function"
    },
    {
      "inputs": [
        {
          "internalType": "uint256",
          "name": "_newMaxSupply",
          "type": "uint256"
        }
      ],
      "name": "setMaxSupply",
      "outputs": [],
      "stateMutability": "nonpayable",
      "type": "function"
    },
    {
      "inputs": [
        {
          "internalType": "bytes4",
          "name": "interfaceId",
          "type": "bytes4"
        }
      ],
      "name": "supportsInterface",
      "outputs": [
        {
          "internalType": "bool",
          "name": "",
          "type": "bool"
        }
      ],
      "stateMutability": "view",
      "type": "function"
    },
    {
      "inputs": [],
      "name": "symbol",
      "outputs": [
        {
          "internalType": "string",
          "name": "",
          "type": "string"
        }
      ],
      "stateMutability": "view",
      "type": "function"
    },
    {
      "inputs": [
        {
          "internalType": "uint256",
          "name": "index",
          "type": "uint256"
        }
      ],
      "name": "tokenByIndex",
      "outputs": [
        {
          "internalType": "uint256",
          "name": "",
          "type": "uint256"
        }
      ],
      "stateMutability": "view",
      "type": "function"
    },
    {
      "inputs": [
        {
          "internalType": "address",
          "name": "owner",
          "type": "address"
        },
        {
          "internalType": "uint256",
          "name": "index",
          "type": "uint256"
        }
      ],
      "name": "tokenOfOwnerByIndex",
      "outputs": [
        {
          "internalType": "uint256",
          "name": "",
          "type": "uint256"
        }
      ],
      "stateMutability": "view",
      "type": "function"
    },
    {
      "inputs": [
        {
          "internalType": "uint256",
          "name": "tokenId",
          "type": "uint256"
        }
      ],
      "name": "tokenURI",
      "outputs": [
        {
          "internalType": "string",
          "name": "",
          "type": "string"
        }
      ],
      "stateMutability": "view",
      "type": "function"
    },
    {
      "inputs": [],
      "name": "totalSupply",
      "outputs": [
        {
          "internalType": "uint256",
          "name": "",
          "type": "uint256"
        }
      ],
      "stateMutability": "view",
      "type": "function"
    },
    {
      "inputs": [
        {
          "internalType": "address",
          "name": "newAdmin",
          "type": "address"
        }
      ],
      "name": "transferAdmin",
      "outputs": [],
      "stateMutability": "nonpayable",
      "type": "function"
    },
    {
      "inputs": [
        {
          "internalType": "address",
          "name": "from",
          "type": "address"
        },
        {
          "internalType": "address",
          "name": "to",
          "type": "address"
        },
        {
          "internalType": "uint256",
          "name": "tokenId",
          "type": "uint256"
        }
      ],
      "name": "transferFrom",
      "outputs": [],
      "stateMutability": "nonpayable",
      "type": "function"
    },
    {
      "inputs": [
        {
          "internalType": "address",
          "name": "newOwner",
          "type": "address"
        }
      ],
      "name": "transferOwnership",
      "outputs": [],
      "stateMutability": "nonpayable",
      "type": "function"
    },
    {
      "inputs": [],
      "name": "withdraw",
      "outputs": [],
      "stateMutability": "payable",
      "type": "function"
    }
  ],
  "bytecode": "0x60806040526040518060400160405280600581526020017f2e6a736f6e000000000000000000000000000000000000000000000000000000815250600e9080519060200190620000519291906200045d565b50662386f26fc10000600f556101a96010556000601160006101000a81548160ff0219169083151502179055503480156200008b57600080fd5b5060405162005bef38038062005bef8339818101604052810190620000b1919062000596565b8383838383838160009080519060200190620000cf9291906200045d565b508060019080519060200190620000e89291906200045d565b5050506200010b620000ff6200015b60201b60201c565b6200016360201b60201c565b6200012b6200011f6200015b60201b60201c565b6200022960201b60201c565b6200013c82620002ef60201b60201c565b6200014d816200039a60201b60201c565b505050505050505062000864565b600033905090565b6000600a60009054906101000a900473ffffffffffffffffffffffffffffffffffffffff16905081600a60006101000a81548173ffffffffffffffffffffffffffffffffffffffff021916908373ffffffffffffffffffffffffffffffffffffffff1602179055508173ffffffffffffffffffffffffffffffffffffffff168173ffffffffffffffffffffffffffffffffffffffff167f8be0079c531659141344cd1fd0a4f28419497f9722a3daafe3b4186f6b6457e060405160405180910390a35050565b6000600b60009054906101000a900473ffffffffffffffffffffffffffffffffffffffff16905081600b60006101000a81548173ffffffffffffffffffffffffffffffffffffffff021916908373ffffffffffffffffffffffffffffffffffffffff1602179055508173ffffffffffffffffffffffffffffffffffffffff168173ffffffffffffffffffffffffffffffffffffffff167ff8ccb027dfcd135e000e9d45e6cc2d662578a8825d4c45b5e32e0adf67e79ec660405160405180910390a35050565b620002ff6200015b60201b60201c565b73ffffffffffffffffffffffffffffffffffffffff16620003256200043360201b60201c565b73ffffffffffffffffffffffffffffffffffffffff16146200037e576040517f08c379a0000000000000000000000000000000000000000000000000000000008152600401620003759062000674565b60405180910390fd5b80600d9080519060200190620003969291906200045d565b5050565b620003aa6200015b60201b60201c565b73ffffffffffffffffffffffffffffffffffffffff16620003d06200043360201b60201c565b73ffffffffffffffffffffffffffffffffffffffff161462000429576040517f08c379a0000000000000000000000000000000000000000000000000000000008152600401620004209062000674565b60405180910390fd5b8060108190555050565b6000600a60009054906101000a900473ffffffffffffffffffffffffffffffffffffffff16905090565b8280546200046b9062000746565b90600052602060002090601f0160209004810192826200048f5760008555620004db565b82601f10620004aa57805160ff1916838001178555620004db565b82800160010185558215620004db579182015b82811115620004da578251825591602001919060010190620004bd565b5b509050620004ea9190620004ee565b5090565b5b8082111562000509576000816000905550600101620004ef565b5090565b6000620005246200051e84620006bf565b62000696565b9050828152602081018484840111156200053d57600080fd5b6200054a84828562000710565b509392505050565b600082601f8301126200056457600080fd5b8151620005768482602086016200050d565b91505092915050565b60008151905062000590816200084a565b92915050565b60008060008060808587031215620005ad57600080fd5b600085015167ffffffffffffffff811115620005c857600080fd5b620005d68782880162000552565b945050602085015167ffffffffffffffff811115620005f457600080fd5b620006028782880162000552565b935050604085015167ffffffffffffffff8111156200062057600080fd5b6200062e8782880162000552565b925050606062000641878288016200057f565b91505092959194509250565b60006200065c602083620006f5565b9150620006698262000821565b602082019050919050565b600060208201905081810360008301526200068f816200064d565b9050919050565b6000620006a2620006b5565b9050620006b082826200077c565b919050565b6000604051905090565b600067ffffffffffffffff821115620006dd57620006dc620007e1565b5b620006e88262000810565b9050602081019050919050565b600082825260208201905092915050565b6000819050919050565b60005b838110156200073057808201518184015260208101905062000713565b8381111562000740576000848401525b50505050565b600060028204905060018216806200075f57607f821691505b60208210811415620007765762000775620007b2565b5b50919050565b620007878262000810565b810181811067ffffffffffffffff82111715620007a957620007a8620007e1565b5b80604052505050565b7f4e487b7100000000000000000000000000000000000000000000000000000000600052602260045260246000fd5b7f4e487b7100000000000000000000000000000000000000000000000000000000600052604160045260246000fd5b6000601f19601f8301169050919050565b7f4f776e61626c653a2063616c6c6572206973206e6f7420746865206f776e6572600082015250565b620008558162000706565b81146200086157600080fd5b50565b61537b80620008746000396000f3fe60806040526004361061021a5760003560e01c80636f8b44b011610123578063b88d4fde116100ab578063e444bb461161006f578063e444bb46146107a3578063e985e9c5146107cc578063f2fde38b14610809578063f851a44014610832578063fce584051461085d5761021a565b8063b88d4fde146106be578063c6682862146106e7578063c87b56dd14610712578063d5abeb011461074f578063da3ef23f1461077a5761021a565b80638d393b8f116100f25780638d393b8f146105e95780638da5cb5b1461061657806391132d8b1461064157806395d89b411461066a578063a22cb465146106955761021a565b80636f8b44b01461054357806370a082311461056c578063715018a6146105a957806375829def146105c05761021a565b80633ccfd60b116101a65780634f6ccce7116101755780634f6ccce71461044a57806355f804b3146104875780635c975abb146104b05780636352211e146104db5780636c0360eb146105185761021a565b80633ccfd60b146103d257806340c10f19146103dc57806342842e0e146103f857806344a0d68a146104215761021a565b8063095ea7b3116101ed578063095ea7b3146102ed57806313faede61461031657806318160ddd1461034157806323b872dd1461036c5780632f745c59146103955761021a565b806301ffc9a71461021f57806302329a291461025c57806306fdde0314610285578063081812fc146102b0575b600080fd5b34801561022b57600080fd5b5061024660048036038101906102419190613c8d565b61089a565b60405161025391906144d4565b60405180910390f35b34801561026857600080fd5b50610283600480360381019061027e9190613c64565b610914565b005b34801561029157600080fd5b5061029a6109ad565b6040516102a791906144ef565b60405180910390f35b3480156102bc57600080fd5b506102d760048036038101906102d29190613d20565b610a3f565b6040516102e49190614421565b60405180910390f35b3480156102f957600080fd5b50610314600480360381019061030f9190613c28565b610ac4565b005b34801561032257600080fd5b5061032b610bdc565b6040516103389190614833565b60405180910390f35b34801561034d57600080fd5b50610356610be2565b6040516103639190614833565b60405180910390f35b34801561037857600080fd5b50610393600480360381019061038e9190613b22565b610bef565b005b3480156103a157600080fd5b506103bc60048036038101906103b79190613c28565b610c4f565b6040516103c99190614833565b60405180910390f35b6103da610cf4565b005b6103f660048036038101906103f19190613c28565b610db0565b005b34801561040457600080fd5b5061041f600480360381019061041a9190613b22565b610f3d565b005b34801561042d57600080fd5b5061044860048036038101906104439190613d20565b610f5d565b005b34801561045657600080fd5b50610471600480360381019061046c9190613d20565b610fe3565b60405161047e9190614833565b60405180910390f35b34801561049357600080fd5b506104ae60048036038101906104a99190613cdf565b61107a565b005b3480156104bc57600080fd5b506104c5611110565b6040516104d291906144d4565b60405180910390f35b3480156104e757600080fd5b5061050260048036038101906104fd9190613d20565b611123565b60405161050f9190614421565b60405180910390f35b34801561052457600080fd5b5061052d6111d5565b60405161053a91906144ef565b60405180910390f35b34801561054f57600080fd5b5061056a60048036038101906105659190613d20565b611263565b005b34801561057857600080fd5b50610593600480360381019061058e9190613abd565b6112e9565b6040516105a09190614833565b60405180910390f35b3480156105b557600080fd5b506105be6113a1565b005b3480156105cc57600080fd5b506105e760048036038101906105e29190613abd565b611429565b005b3480156105f557600080fd5b506105fe611521565b60405161060d93929190614488565b60405180910390f35b34801561062257600080fd5b5061062b611a34565b6040516106389190614421565b60405180910390f35b34801561064d57600080fd5b5061066860048036038101906106639190613d49565b611a5e565b005b34801561067657600080fd5b5061067f611c0e565b60405161068c91906144ef565b60405180910390f35b3480156106a157600080fd5b506106bc60048036038101906106b79190613bec565b611ca0565b005b3480156106ca57600080fd5b506106e560048036038101906106e09190613b71565b611cb6565b005b3480156106f357600080fd5b506106fc611d18565b60405161070991906144ef565b60405180910390f35b34801561071e57600080fd5b5061073960048036038101906107349190613d20565b611da6565b60405161074691906144ef565b60405180910390f35b34801561075b57600080fd5b50610764611e50565b6040516107719190614833565b60405180910390f35b34801561078657600080fd5b506107a1600480360381019061079c9190613cdf565b611e56565b005b3480156107af57600080fd5b506107ca60048036038101906107c59190613d49565b611eec565b005b3480156107d857600080fd5b506107f360048036038101906107ee9190613ae6565b6120d7565b60405161080091906144d4565b60405180910390f35b34801561081557600080fd5b50610830600480360381019061082b9190613abd565b61216b565b005b34801561083e57600080fd5b50610847612263565b6040516108549190614421565b60405180910390f35b34801561086957600080fd5b50610884600480360381019061087f9190613d20565b61228d565b6040516108919190614811565b60405180910390f35b60007f780e9d63000000000000000000000000000000000000000000000000000000007bffffffffffffffffffffffffffffffffffffffffffffffffffffffff1916827bffffffffffffffffffffffffffffffffffffffffffffffffffffffff1916148061090d575061090c826123de565b5b9050919050565b61091c6124c0565b73ffffffffffffffffffffffffffffffffffffffff1661093a611a34565b73ffffffffffffffffffffffffffffffffffffffff1614610990576040517f08c379a0000000000000000000000000000000000000000000000000000000008152600401610987906146d1565b60405180910390fd5b80601160006101000a81548160ff02191690831515021790555050565b6060600080546109bc90614b53565b80601f01602080910402602001604051908101604052809291908181526020018280546109e890614b53565b8015610a355780601f10610a0a57610100808354040283529160200191610a35565b820191906000526020600020905b815481529060010190602001808311610a1857829003601f168201915b5050505050905090565b6000610a4a826124c8565b610a89576040517f08c379a0000000000000000000000000000000000000000000000000000000008152600401610a80906146b1565b60405180910390fd5b6004600083815260200190815260200160002060009054906101000a900473ffffffffffffffffffffffffffffffffffffffff169050919050565b6000610acf82611123565b90508073ffffffffffffffffffffffffffffffffffffffff168373ffffffffffffffffffffffffffffffffffffffff161415610b40576040517f08c379a0000000000000000000000000000000000000000000000000000000008152600401610b3790614751565b60405180910390fd5b8073ffffffffffffffffffffffffffffffffffffffff16610b5f6124c0565b73ffffffffffffffffffffffffffffffffffffffff161480610b8e5750610b8d81610b886124c0565b6120d7565b5b610bcd576040517f08c379a0000000000000000000000000000000000000000000000000000000008152600401610bc490614631565b60405180910390fd5b610bd78383612534565b505050565b600f5481565b6000600880549050905090565b610c00610bfa6124c0565b826125ed565b610c3f576040517f08c379a0000000000000000000000000000000000000000000000000000000008152600401610c3690614771565b60405180910390fd5b610c4a8383836126cb565b505050565b6000610c5a836112e9565b8210610c9b576040517f08c379a0000000000000000000000000000000000000000000000000000000008152600401610c9290614511565b60405180910390fd5b600660008473ffffffffffffffffffffffffffffffffffffffff1673ffffffffffffffffffffffffffffffffffffffff168152602001908152602001600020600083815260200190815260200160002054905092915050565b610cfc6124c0565b73ffffffffffffffffffffffffffffffffffffffff16610d1a611a34565b73ffffffffffffffffffffffffffffffffffffffff1614610d70576040517f08c379a0000000000000000000000000000000000000000000000000000000008152600401610d67906146d1565b60405180910390fd5b3373ffffffffffffffffffffffffffffffffffffffff166108fc479081150290604051600060405180830381858888f19350505050610dae57600080fd5b565b601160009054906101000a900460ff1615610e00576040517f08c379a0000000000000000000000000000000000000000000000000000000008152600401610df7906147d1565b60405180910390fd5b600f54341015610e45576040517f08c379a0000000000000000000000000000000000000000000000000000000008152600401610e3c90614711565b60405180910390fd5b601054610e52600c612932565b10610e92576040517f08c379a0000000000000000000000000000000000000000000000000000000008152600401610e8990614611565b60405180910390fd5b60001515610e9f826124c8565b151514610ee1576040517f08c379a0000000000000000000000000000000000000000000000000000000008152600401610ed890614591565b60405180910390fd5b6010548110610f25576040517f08c379a0000000000000000000000000000000000000000000000000000000008152600401610f1c90614731565b60405180910390fd5b610f2f8282612940565b610f39600c61295e565b5050565b610f5883838360405180602001604052806000815250611cb6565b505050565b610f656124c0565b73ffffffffffffffffffffffffffffffffffffffff16610f83611a34565b73ffffffffffffffffffffffffffffffffffffffff1614610fd9576040517f08c379a0000000000000000000000000000000000000000000000000000000008152600401610fd0906146d1565b60405180910390fd5b80600f8190555050565b6000610fed610be2565b821061102e576040517f08c379a000000000000000000000000000000000000000000000000000000000815260040161102590614791565b60405180910390fd5b60088281548110611068577f4e487b7100000000000000000000000000000000000000000000000000000000600052603260045260246000fd5b90600052602060002001549050919050565b6110826124c0565b73ffffffffffffffffffffffffffffffffffffffff166110a0611a34565b73ffffffffffffffffffffffffffffffffffffffff16146110f6576040517f08c379a00000000000000000000000000000000000000000000000000000000081526004016110ed906146d1565b60405180910390fd5b80600d908051906020019061110c9291906137f7565b5050565b601160009054906101000a900460ff1681565b6000806002600084815260200190815260200160002060009054906101000a900473ffffffffffffffffffffffffffffffffffffffff169050600073ffffffffffffffffffffffffffffffffffffffff168173ffffffffffffffffffffffffffffffffffffffff1614156111cc576040517f08c379a00000000000000000000000000000000000000000000000000000000081526004016111c390614671565b60405180910390fd5b80915050919050565b600d80546111e290614b53565b80601f016020809104026020016040519081016040528092919081815260200182805461120e90614b53565b801561125b5780601f106112305761010080835404028352916020019161125b565b820191906000526020600020905b81548152906001019060200180831161123e57829003601f168201915b505050505081565b61126b6124c0565b73ffffffffffffffffffffffffffffffffffffffff16611289611a34565b73ffffffffffffffffffffffffffffffffffffffff16146112df576040517f08c379a00000000000000000000000000000000000000000000000000000000081526004016112d6906146d1565b60405180910390fd5b8060108190555050565b60008073ffffffffffffffffffffffffffffffffffffffff168273ffffffffffffffffffffffffffffffffffffffff16141561135a576040517f08c379a000000000000000000000000000000000000000000000000000000000815260040161135190614651565b60405180910390fd5b600360008373ffffffffffffffffffffffffffffffffffffffff1673ffffffffffffffffffffffffffffffffffffffff168152602001908152602001600020549050919050565b6113a96124c0565b73ffffffffffffffffffffffffffffffffffffffff166113c7611a34565b73ffffffffffffffffffffffffffffffffffffffff161461141d576040517f08c379a0000000000000000000000000000000000000000000000000000000008152600401611414906146d1565b60405180910390fd5b6114276000612974565b565b6114316124c0565b73ffffffffffffffffffffffffffffffffffffffff1661144f611a34565b73ffffffffffffffffffffffffffffffffffffffff16146114a5576040517f08c379a000000000000000000000000000000000000000000000000000000000815260040161149c906146d1565b60405180910390fd5b600073ffffffffffffffffffffffffffffffffffffffff168173ffffffffffffffffffffffffffffffffffffffff161415611515576040517f08c379a000000000000000000000000000000000000000000000000000000000815260040161150c90614551565b60405180910390fd5b61151e81612a3a565b50565b6060806060600060105467ffffffffffffffff81111561156a577f4e487b7100000000000000000000000000000000000000000000000000000000600052604160045260246000fd5b60405190808252806020026020018201604052801561159d57816020015b60608152602001906001900390816115885790505b509050600060105467ffffffffffffffff8111156115e4577f4e487b7100000000000000000000000000000000000000000000000000000000600052604160045260246000fd5b60405190808252806020026020018201604052801561161757816020015b60608152602001906001900390816116025790505b509050600060105467ffffffffffffffff81111561165e577f4e487b7100000000000000000000000000000000000000000000000000000000600052604160045260246000fd5b60405190808252806020026020018201604052801561168c5781602001602082028036833780820191505090505b50905060005b601054811015611a22576116a5816124c8565b156118f1576012600082815260200190815260200160002060000180546116cb90614b53565b80601f01602080910402602001604051908101604052809291908181526020018280546116f790614b53565b80156117445780601f1061171957610100808354040283529160200191611744565b820191906000526020600020905b81548152906001019060200180831161172757829003601f168201915b5050505050848281518110611782577f4e487b7100000000000000000000000000000000000000000000000000000000600052603260045260246000fd5b60200260200101819052506012600082815260200190815260200160002060010180546117ae90614b53565b80601f01602080910402602001604051908101604052809291908181526020018280546117da90614b53565b80156118275780601f106117fc57610100808354040283529160200191611827565b820191906000526020600020905b81548152906001019060200180831161180a57829003601f168201915b5050505050838281518110611865577f4e487b7100000000000000000000000000000000000000000000000000000000600052603260045260246000fd5b602002602001018190525061187981611123565b8282815181106118b2577f4e487b7100000000000000000000000000000000000000000000000000000000600052603260045260246000fd5b602002602001019073ffffffffffffffffffffffffffffffffffffffff16908173ffffffffffffffffffffffffffffffffffffffff1681525050611a0f565b6040518060200160405280600081525084828151811061193a577f4e487b7100000000000000000000000000000000000000000000000000000000600052603260045260246000fd5b60200260200101819052506040518060200160405280600081525083828151811061198e577f4e487b7100000000000000000000000000000000000000000000000000000000600052603260045260246000fd5b602002602001018190525060008282815181106119d4577f4e487b7100000000000000000000000000000000000000000000000000000000600052603260045260246000fd5b602002602001019073ffffffffffffffffffffffffffffffffffffffff16908173ffffffffffffffffffffffffffffffffffffffff16815250505b8080611a1a90614bb6565b915050611692565b50808383955095509550505050909192565b6000600a60009054906101000a900473ffffffffffffffffffffffffffffffffffffffff16905090565b82611a6881611123565b73ffffffffffffffffffffffffffffffffffffffff163373ffffffffffffffffffffffffffffffffffffffff161480611ad35750611aa4612263565b73ffffffffffffffffffffffffffffffffffffffff163373ffffffffffffffffffffffffffffffffffffffff16145b80611b105750611ae1611a34565b73ffffffffffffffffffffffffffffffffffffffff163373ffffffffffffffffffffffffffffffffffffffff16145b611b4f576040517f08c379a0000000000000000000000000000000000000000000000000000000008152600401611b46906147f1565b60405180910390fd5b6010548410611b93576040517f08c379a0000000000000000000000000000000000000000000000000000000008152600401611b8a90614731565b60405180910390fd5b60011515611ba0856124c8565b151514611be2576040517f08c379a0000000000000000000000000000000000000000000000000000000008152600401611bd9906147b1565b60405180910390fd5b8282601260008781526020019081526020016000206001019190611c0792919061387d565b5050505050565b606060018054611c1d90614b53565b80601f0160208091040260200160405190810160405280929190818152602001828054611c4990614b53565b8015611c965780601f10611c6b57610100808354040283529160200191611c96565b820191906000526020600020905b815481529060010190602001808311611c7957829003601f168201915b5050505050905090565b611cb2611cab6124c0565b8383612b00565b5050565b611cc7611cc16124c0565b836125ed565b611d06576040517f08c379a0000000000000000000000000000000000000000000000000000000008152600401611cfd90614771565b60405180910390fd5b611d1284848484612c6d565b50505050565b600e8054611d2590614b53565b80601f0160208091040260200160405190810160405280929190818152602001828054611d5190614b53565b8015611d9e5780601f10611d7357610100808354040283529160200191611d9e565b820191906000526020600020905b815481529060010190602001808311611d8157829003601f168201915b505050505081565b6060611db1826124c8565b611df0576040517f08c379a0000000000000000000000000000000000000000000000000000000008152600401611de7906146f1565b60405180910390fd5b6000611dfa612cc9565b90506000815111611e1a5760405180602001604052806000815250611e48565b80611e2484612d5b565b600e604051602001611e38939291906143f0565b6040516020818303038152906040525b915050919050565b60105481565b611e5e6124c0565b73ffffffffffffffffffffffffffffffffffffffff16611e7c611a34565b73ffffffffffffffffffffffffffffffffffffffff1614611ed2576040517f08c379a0000000000000000000000000000000000000000000000000000000008152600401611ec9906146d1565b60405180910390fd5b80600e9080519060200190611ee89291906137f7565b5050565b82611ef681611123565b73ffffffffffffffffffffffffffffffffffffffff163373ffffffffffffffffffffffffffffffffffffffff161480611f615750611f32612263565b73ffffffffffffffffffffffffffffffffffffffff163373ffffffffffffffffffffffffffffffffffffffff16145b80611f9e5750611f6f611a34565b73ffffffffffffffffffffffffffffffffffffffff163373ffffffffffffffffffffffffffffffffffffffff16145b611fdd576040517f08c379a0000000000000000000000000000000000000000000000000000000008152600401611fd4906147f1565b60405180910390fd5b6010548410612021576040517f08c379a000000000000000000000000000000000000000000000000000000000815260040161201890614731565b60405180910390fd5b6001151561202e856124c8565b151514612070576040517f08c379a0000000000000000000000000000000000000000000000000000000008152600401612067906147b1565b60405180910390fd5b828260126000878152602001908152602001600020600001919061209592919061387d565b507f74585e531298157f00bfdb74ccc55ff0eb620d4d5e21c29920513c35ea3910a38484846040516120c99392919061484e565b60405180910390a150505050565b6000600560008473ffffffffffffffffffffffffffffffffffffffff1673ffffffffffffffffffffffffffffffffffffffff16815260200190815260200160002060008373ffffffffffffffffffffffffffffffffffffffff1673ffffffffffffffffffffffffffffffffffffffff16815260200190815260200160002060009054906101000a900460ff16905092915050565b6121736124c0565b73ffffffffffffffffffffffffffffffffffffffff16612191611a34565b73ffffffffffffffffffffffffffffffffffffffff16146121e7576040517f08c379a00000000000000000000000000000000000000000000000000000000081526004016121de906146d1565b60405180910390fd5b600073ffffffffffffffffffffffffffffffffffffffff168173ffffffffffffffffffffffffffffffffffffffff161415612257576040517f08c379a000000000000000000000000000000000000000000000000000000000815260040161224e90614551565b60405180910390fd5b61226081612974565b50565b6000600b60009054906101000a900473ffffffffffffffffffffffffffffffffffffffff16905090565b612295613903565b601260008381526020019081526020016000206040518060400160405290816000820180546122c390614b53565b80601f01602080910402602001604051908101604052809291908181526020018280546122ef90614b53565b801561233c5780601f106123115761010080835404028352916020019161233c565b820191906000526020600020905b81548152906001019060200180831161231f57829003601f168201915b5050505050815260200160018201805461235590614b53565b80601f016020809104026020016040519081016040528092919081815260200182805461238190614b53565b80156123ce5780601f106123a3576101008083540402835291602001916123ce565b820191906000526020600020905b8154815290600101906020018083116123b157829003601f168201915b5050505050815250509050919050565b60007f80ac58cd000000000000000000000000000000000000000000000000000000007bffffffffffffffffffffffffffffffffffffffffffffffffffffffff1916827bffffffffffffffffffffffffffffffffffffffffffffffffffffffff191614806124a957507f5b5e139f000000000000000000000000000000000000000000000000000000007bffffffffffffffffffffffffffffffffffffffffffffffffffffffff1916827bffffffffffffffffffffffffffffffffffffffffffffffffffffffff1916145b806124b957506124b882612f08565b5b9050919050565b600033905090565b60008073ffffffffffffffffffffffffffffffffffffffff166002600084815260200190815260200160002060009054906101000a900473ffffffffffffffffffffffffffffffffffffffff1673ffffffffffffffffffffffffffffffffffffffff1614159050919050565b816004600083815260200190815260200160002060006101000a81548173ffffffffffffffffffffffffffffffffffffffff021916908373ffffffffffffffffffffffffffffffffffffffff160217905550808273ffffffffffffffffffffffffffffffffffffffff166125a783611123565b73ffffffffffffffffffffffffffffffffffffffff167f8c5be1e5ebec7d5bd14f71427d1e84f3dd0314c0f7b2291e5b200ac8c7c3b92560405160405180910390a45050565b60006125f8826124c8565b612637576040517f08c379a000000000000000000000000000000000000000000000000000000000815260040161262e906145f1565b60405180910390fd5b600061264283611123565b90508073ffffffffffffffffffffffffffffffffffffffff168473ffffffffffffffffffffffffffffffffffffffff1614806126b157508373ffffffffffffffffffffffffffffffffffffffff1661269984610a3f565b73ffffffffffffffffffffffffffffffffffffffff16145b806126c257506126c181856120d7565b5b91505092915050565b8273ffffffffffffffffffffffffffffffffffffffff166126eb82611123565b73ffffffffffffffffffffffffffffffffffffffff1614612741576040517f08c379a000000000000000000000000000000000000000000000000000000000815260040161273890614571565b60405180910390fd5b600073ffffffffffffffffffffffffffffffffffffffff168273ffffffffffffffffffffffffffffffffffffffff1614156127b1576040517f08c379a00000000000000000000000000000000000000000000000000000000081526004016127a8906145b1565b60405180910390fd5b6127bc838383612f72565b6127c7600082612534565b6001600360008573ffffffffffffffffffffffffffffffffffffffff1673ffffffffffffffffffffffffffffffffffffffff16815260200190815260200160002060008282546128179190614a69565b925050819055506001600360008473ffffffffffffffffffffffffffffffffffffffff1673ffffffffffffffffffffffffffffffffffffffff168152602001908152602001600020600082825461286e91906149e2565b92505081905550816002600083815260200190815260200160002060006101000a81548173ffffffffffffffffffffffffffffffffffffffff021916908373ffffffffffffffffffffffffffffffffffffffff160217905550808273ffffffffffffffffffffffffffffffffffffffff168473ffffffffffffffffffffffffffffffffffffffff167fddf252ad1be2c89b69c2b068fc378daa952ba7f163c4a11628f55a4df523b3ef60405160405180910390a461292d838383613086565b505050565b600081600001549050919050565b61295a82826040518060200160405280600081525061308b565b5050565b6001816000016000828254019250508190555050565b6000600a60009054906101000a900473ffffffffffffffffffffffffffffffffffffffff16905081600a60006101000a81548173ffffffffffffffffffffffffffffffffffffffff021916908373ffffffffffffffffffffffffffffffffffffffff1602179055508173ffffffffffffffffffffffffffffffffffffffff168173ffffffffffffffffffffffffffffffffffffffff167f8be0079c531659141344cd1fd0a4f28419497f9722a3daafe3b4186f6b6457e060405160405180910390a35050565b6000600b60009054906101000a900473ffffffffffffffffffffffffffffffffffffffff16905081600b60006101000a81548173ffffffffffffffffffffffffffffffffffffffff021916908373ffffffffffffffffffffffffffffffffffffffff1602179055508173ffffffffffffffffffffffffffffffffffffffff168173ffffffffffffffffffffffffffffffffffffffff167ff8ccb027dfcd135e000e9d45e6cc2d662578a8825d4c45b5e32e0adf67e79ec660405160405180910390a35050565b8173ffffffffffffffffffffffffffffffffffffffff168373ffffffffffffffffffffffffffffffffffffffff161415612b6f576040517f08c379a0000000000000000000000000000000000000000000000000000000008152600401612b66906145d1565b60405180910390fd5b80600560008573ffffffffffffffffffffffffffffffffffffffff1673ffffffffffffffffffffffffffffffffffffffff16815260200190815260200160002060008473ffffffffffffffffffffffffffffffffffffffff1673ffffffffffffffffffffffffffffffffffffffff16815260200190815260200160002060006101000a81548160ff0219169083151502179055508173ffffffffffffffffffffffffffffffffffffffff168373ffffffffffffffffffffffffffffffffffffffff167f17307eab39ab6107e8899845ad3d59bd9653f200f220920489ca2b5937696c3183604051612c6091906144d4565b60405180910390a3505050565b612c788484846126cb565b612c84848484846130e6565b612cc3576040517f08c379a0000000000000000000000000000000000000000000000000000000008152600401612cba90614531565b60405180910390fd5b50505050565b6060600d8054612cd890614b53565b80601f0160208091040260200160405190810160405280929190818152602001828054612d0490614b53565b8015612d515780601f10612d2657610100808354040283529160200191612d51565b820191906000526020600020905b815481529060010190602001808311612d3457829003601f168201915b5050505050905090565b60606000821415612da3576040518060400160405280600181526020017f30000000000000000000000000000000000000000000000000000000000000008152509050612f03565b600082905060005b60008214612dd5578080612dbe90614bb6565b915050600a82612dce9190614a38565b9150612dab565b60008167ffffffffffffffff811115612e17577f4e487b7100000000000000000000000000000000000000000000000000000000600052604160045260246000fd5b6040519080825280601f01601f191660200182016040528015612e495781602001600182028036833780820191505090505b5090505b60008514612efc57600182612e629190614a69565b9150600a85612e719190614bff565b6030612e7d91906149e2565b60f81b818381518110612eb9577f4e487b7100000000000000000000000000000000000000000000000000000000600052603260045260246000fd5b60200101907effffffffffffffffffffffffffffffffffffffffffffffffffffffffffffff1916908160001a905350600a85612ef59190614a38565b9450612e4d565b8093505050505b919050565b60007f01ffc9a7000000000000000000000000000000000000000000000000000000007bffffffffffffffffffffffffffffffffffffffffffffffffffffffff1916827bffffffffffffffffffffffffffffffffffffffffffffffffffffffff1916149050919050565b612f7d83838361327d565b600073ffffffffffffffffffffffffffffffffffffffff168373ffffffffffffffffffffffffffffffffffffffff161415612fc057612fbb81613282565b612fff565b8173ffffffffffffffffffffffffffffffffffffffff168373ffffffffffffffffffffffffffffffffffffffff1614612ffe57612ffd83826132cb565b5b5b600073ffffffffffffffffffffffffffffffffffffffff168273ffffffffffffffffffffffffffffffffffffffff1614156130425761303d81613438565b613081565b8273ffffffffffffffffffffffffffffffffffffffff168273ffffffffffffffffffffffffffffffffffffffff16146130805761307f828261357b565b5b5b505050565b505050565b61309583836135fa565b6130a260008484846130e6565b6130e1576040517f08c379a00000000000000000000000000000000000000000000000000000000081526004016130d890614531565b60405180910390fd5b505050565b60006131078473ffffffffffffffffffffffffffffffffffffffff166137d4565b15613270578373ffffffffffffffffffffffffffffffffffffffff1663150b7a026131306124c0565b8786866040518563ffffffff1660e01b8152600401613152949392919061443c565b602060405180830381600087803b15801561316c57600080fd5b505af192505050801561319d57506040513d601f19601f8201168201806040525081019061319a9190613cb6565b60015b613220573d80600081146131cd576040519150601f19603f3d011682016040523d82523d6000602084013e6131d2565b606091505b50600081511415613218576040517f08c379a000000000000000000000000000000000000000000000000000000000815260040161320f90614531565b60405180910390fd5b805181602001fd5b63150b7a0260e01b7bffffffffffffffffffffffffffffffffffffffffffffffffffffffff1916817bffffffffffffffffffffffffffffffffffffffffffffffffffffffff191614915050613275565b600190505b949350505050565b505050565b6008805490506009600083815260200190815260200160002081905550600881908060018154018082558091505060019003906000526020600020016000909190919091505550565b600060016132d8846112e9565b6132e29190614a69565b90506000600760008481526020019081526020016000205490508181146133c7576000600660008673ffffffffffffffffffffffffffffffffffffffff1673ffffffffffffffffffffffffffffffffffffffff168152602001908152602001600020600084815260200190815260200160002054905080600660008773ffffffffffffffffffffffffffffffffffffffff1673ffffffffffffffffffffffffffffffffffffffff168152602001908152602001600020600084815260200190815260200160002081905550816007600083815260200190815260200160002081905550505b6007600084815260200190815260200160002060009055600660008573ffffffffffffffffffffffffffffffffffffffff1673ffffffffffffffffffffffffffffffffffffffff16815260200190815260200160002060008381526020019081526020016000206000905550505050565b6000600160088054905061344c9190614a69565b90506000600960008481526020019081526020016000205490506000600883815481106134a2577f4e487b7100000000000000000000000000000000000000000000000000000000600052603260045260246000fd5b9060005260206000200154905080600883815481106134ea577f4e487b7100000000000000000000000000000000000000000000000000000000600052603260045260246000fd5b90600052602060002001819055508160096000838152602001908152602001600020819055506009600085815260200190815260200160002060009055600880548061355f577f4e487b7100000000000000000000000000000000000000000000000000000000600052603160045260246000fd5b6001900381819060005260206000200160009055905550505050565b6000613586836112e9565b905081600660008573ffffffffffffffffffffffffffffffffffffffff1673ffffffffffffffffffffffffffffffffffffffff168152602001908152602001600020600083815260200190815260200160002081905550806007600084815260200190815260200160002081905550505050565b600073ffffffffffffffffffffffffffffffffffffffff168273ffffffffffffffffffffffffffffffffffffffff16141561366a576040517f08c379a000000000000000000000000000000000000000000000000000000000815260040161366190614691565b60405180910390fd5b613673816124c8565b156136b3576040517f08c379a00000000000000000000000000000000000000000000000000000000081526004016136aa90614591565b60405180910390fd5b6136bf60008383612f72565b6001600360008473ffffffffffffffffffffffffffffffffffffffff1673ffffffffffffffffffffffffffffffffffffffff168152602001908152602001600020600082825461370f91906149e2565b92505081905550816002600083815260200190815260200160002060006101000a81548173ffffffffffffffffffffffffffffffffffffffff021916908373ffffffffffffffffffffffffffffffffffffffff160217905550808273ffffffffffffffffffffffffffffffffffffffff16600073ffffffffffffffffffffffffffffffffffffffff167fddf252ad1be2c89b69c2b068fc378daa952ba7f163c4a11628f55a4df523b3ef60405160405180910390a46137d060008383613086565b5050565b6000808273ffffffffffffffffffffffffffffffffffffffff163b119050919050565b82805461380390614b53565b90600052602060002090601f016020900481019282613825576000855561386c565b82601f1061383e57805160ff191683800117855561386c565b8280016001018555821561386c579182015b8281111561386b578251825591602001919060010190613850565b5b509050613879919061391d565b5090565b82805461388990614b53565b90600052602060002090601f0160209004810192826138ab57600085556138f2565b82601f106138c457803560ff19168380011785556138f2565b828001600101855582156138f2579182015b828111156138f15782358255916020019190600101906138d6565b5b5090506138ff919061391d565b5090565b604051806040016040528060608152602001606081525090565b5b8082111561393657600081600090555060010161391e565b5090565b600061394d613948846148a5565b614880565b90508281526020810184848401111561396557600080fd5b613970848285614b11565b509392505050565b600061398b613986846148d6565b614880565b9050828152602081018484840111156139a357600080fd5b6139ae848285614b11565b509392505050565b6000813590506139c5816152e9565b92915050565b6000813590506139da81615300565b92915050565b6000813590506139ef81615317565b92915050565b600081519050613a0481615317565b92915050565b600082601f830112613a1b57600080fd5b8135613a2b84826020860161393a565b91505092915050565b60008083601f840112613a4657600080fd5b8235905067ffffffffffffffff811115613a5f57600080fd5b602083019150836001820283011115613a7757600080fd5b9250929050565b600082601f830112613a8f57600080fd5b8135613a9f848260208601613978565b91505092915050565b600081359050613ab78161532e565b92915050565b600060208284031215613acf57600080fd5b6000613add848285016139b6565b91505092915050565b60008060408385031215613af957600080fd5b6000613b07858286016139b6565b9250506020613b18858286016139b6565b9150509250929050565b600080600060608486031215613b3757600080fd5b6000613b45868287016139b6565b9350506020613b56868287016139b6565b9250506040613b6786828701613aa8565b9150509250925092565b60008060008060808587031215613b8757600080fd5b6000613b95878288016139b6565b9450506020613ba6878288016139b6565b9350506040613bb787828801613aa8565b925050606085013567ffffffffffffffff811115613bd457600080fd5b613be087828801613a0a565b91505092959194509250565b60008060408385031215613bff57600080fd5b6000613c0d858286016139b6565b9250506020613c1e858286016139cb565b9150509250929050565b60008060408385031215613c3b57600080fd5b6000613c49858286016139b6565b9250506020613c5a85828601613aa8565b9150509250929050565b600060208284031215613c7657600080fd5b6000613c84848285016139cb565b91505092915050565b600060208284031215613c9f57600080fd5b6000613cad848285016139e0565b91505092915050565b600060208284031215613cc857600080fd5b6000613cd6848285016139f5565b91505092915050565b600060208284031215613cf157600080fd5b600082013567ffffffffffffffff811115613d0b57600080fd5b613d1784828501613a7e565b91505092915050565b600060208284031215613d3257600080fd5b6000613d4084828501613aa8565b91505092915050565b600080600060408486031215613d5e57600080fd5b6000613d6c86828701613aa8565b935050602084013567ffffffffffffffff811115613d8957600080fd5b613d9586828701613a34565b92509250509250925092565b6000613dad8383613dcd565b60208301905092915050565b6000613dc58383613f33565b905092915050565b613dd681614a9d565b82525050565b613de581614a9d565b82525050565b6000613df68261493c565b613e008185614982565b9350613e0b83614907565b8060005b83811015613e3c578151613e238882613da1565b9750613e2e83614968565b925050600181019050613e0f565b5085935050505092915050565b6000613e5482614947565b613e5e8185614993565b935083602082028501613e7085614917565b8060005b85811015613eac5784840389528151613e8d8582613db9565b9450613e9883614975565b925060208a01995050600181019050613e74565b50829750879550505050505092915050565b613ec781614aaf565b82525050565b6000613ed882614952565b613ee281856149a4565b9350613ef2818560208601614b20565b613efb81614cec565b840191505092915050565b6000613f1283856149c6565b9350613f1f838584614b11565b613f2883614cec565b840190509392505050565b6000613f3e8261495d565b613f4881856149b5565b9350613f58818560208601614b20565b613f6181614cec565b840191505092915050565b6000613f778261495d565b613f8181856149c6565b9350613f91818560208601614b20565b613f9a81614cec565b840191505092915050565b6000613fb08261495d565b613fba81856149d7565b9350613fca818560208601614b20565b80840191505092915050565b60008154613fe381614b53565b613fed81866149d7565b9450600182166000811461400857600181146140195761404c565b60ff1983168652818601935061404c565b61402285614927565b60005b8381101561404457815481890152600182019150602081019050614025565b838801955050505b50505092915050565b6000614062602b836149c6565b915061406d82614cfd565b604082019050919050565b60006140856032836149c6565b915061409082614d4c565b604082019050919050565b60006140a86026836149c6565b91506140b382614d9b565b604082019050919050565b60006140cb6025836149c6565b91506140d682614dea565b604082019050919050565b60006140ee601c836149c6565b91506140f982614e39565b602082019050919050565b60006141116024836149c6565b915061411c82614e62565b604082019050919050565b60006141346019836149c6565b915061413f82614eb1565b602082019050919050565b6000614157602c836149c6565b915061416282614eda565b604082019050919050565b600061417a600a836149c6565b915061418582614f29565b602082019050919050565b600061419d6038836149c6565b91506141a882614f52565b604082019050919050565b60006141c0602a836149c6565b91506141cb82614fa1565b604082019050919050565b60006141e36029836149c6565b91506141ee82614ff0565b604082019050919050565b60006142066020836149c6565b91506142118261503f565b602082019050919050565b6000614229602c836149c6565b915061423482615068565b604082019050919050565b600061424c6020836149c6565b9150614257826150b7565b602082019050919050565b600061426f602f836149c6565b915061427a826150e0565b604082019050919050565b60006142926011836149c6565b915061429d8261512f565b602082019050919050565b60006142b5600d836149c6565b91506142c082615158565b602082019050919050565b60006142d86021836149c6565b91506142e382615181565b604082019050919050565b60006142fb6031836149c6565b9150614306826151d0565b604082019050919050565b600061431e602c836149c6565b91506143298261521f565b604082019050919050565b6000614341600f836149c6565b915061434c8261526e565b602082019050919050565b60006143646012836149c6565b915061436f82615297565b602082019050919050565b6000614387600e836149c6565b9150614392826152c0565b602082019050919050565b600060408301600083015184820360008601526143ba8282613f33565b915050602083015184820360208601526143d48282613f33565b9150508091505092915050565b6143ea81614b07565b82525050565b60006143fc8286613fa5565b91506144088285613fa5565b91506144148284613fd6565b9150819050949350505050565b60006020820190506144366000830184613ddc565b92915050565b60006080820190506144516000830187613ddc565b61445e6020830186613ddc565b61446b60408301856143e1565b818103606083015261447d8184613ecd565b905095945050505050565b600060608201905081810360008301526144a28186613deb565b905081810360208301526144b68185613e49565b905081810360408301526144ca8184613e49565b9050949350505050565b60006020820190506144e96000830184613ebe565b92915050565b600060208201905081810360008301526145098184613f6c565b905092915050565b6000602082019050818103600083015261452a81614055565b9050919050565b6000602082019050818103600083015261454a81614078565b9050919050565b6000602082019050818103600083015261456a8161409b565b9050919050565b6000602082019050818103600083015261458a816140be565b9050919050565b600060208201905081810360008301526145aa816140e1565b9050919050565b600060208201905081810360008301526145ca81614104565b9050919050565b600060208201905081810360008301526145ea81614127565b9050919050565b6000602082019050818103600083015261460a8161414a565b9050919050565b6000602082019050818103600083015261462a8161416d565b9050919050565b6000602082019050818103600083015261464a81614190565b9050919050565b6000602082019050818103600083015261466a816141b3565b9050919050565b6000602082019050818103600083015261468a816141d6565b9050919050565b600060208201905081810360008301526146aa816141f9565b9050919050565b600060208201905081810360008301526146ca8161421c565b9050919050565b600060208201905081810360008301526146ea8161423f565b9050919050565b6000602082019050818103600083015261470a81614262565b9050919050565b6000602082019050818103600083015261472a81614285565b9050919050565b6000602082019050818103600083015261474a816142a8565b9050919050565b6000602082019050818103600083015261476a816142cb565b9050919050565b6000602082019050818103600083015261478a816142ee565b9050919050565b600060208201905081810360008301526147aa81614311565b9050919050565b600060208201905081810360008301526147ca81614334565b9050919050565b600060208201905081810360008301526147ea81614357565b9050919050565b6000602082019050818103600083015261480a8161437a565b9050919050565b6000602082019050818103600083015261482b818461439d565b905092915050565b600060208201905061484860008301846143e1565b92915050565b600060408201905061486360008301866143e1565b8181036020830152614876818486613f06565b9050949350505050565b600061488a61489b565b90506148968282614b85565b919050565b6000604051905090565b600067ffffffffffffffff8211156148c0576148bf614cbd565b5b6148c982614cec565b9050602081019050919050565b600067ffffffffffffffff8211156148f1576148f0614cbd565b5b6148fa82614cec565b9050602081019050919050565b6000819050602082019050919050565b6000819050602082019050919050565b60008190508160005260206000209050919050565b600081519050919050565b600081519050919050565b600081519050919050565b600081519050919050565b6000602082019050919050565b6000602082019050919050565b600082825260208201905092915050565b600082825260208201905092915050565b600082825260208201905092915050565b600082825260208201905092915050565b600082825260208201905092915050565b600081905092915050565b60006149ed82614b07565b91506149f883614b07565b9250827fffffffffffffffffffffffffffffffffffffffffffffffffffffffffffffffff03821115614a2d57614a2c614c30565b5b828201905092915050565b6000614a4382614b07565b9150614a4e83614b07565b925082614a5e57614a5d614c5f565b5b828204905092915050565b6000614a7482614b07565b9150614a7f83614b07565b925082821015614a9257614a91614c30565b5b828203905092915050565b6000614aa882614ae7565b9050919050565b60008115159050919050565b60007fffffffff0000000000000000000000000000000000000000000000000000000082169050919050565b600073ffffffffffffffffffffffffffffffffffffffff82169050919050565b6000819050919050565b82818337600083830152505050565b60005b83811015614b3e578082015181840152602081019050614b23565b83811115614b4d576000848401525b50505050565b60006002820490506001821680614b6b57607f821691505b60208210811415614b7f57614b7e614c8e565b5b50919050565b614b8e82614cec565b810181811067ffffffffffffffff82111715614bad57614bac614cbd565b5b80604052505050565b6000614bc182614b07565b91507fffffffffffffffffffffffffffffffffffffffffffffffffffffffffffffffff821415614bf457614bf3614c30565b5b600182019050919050565b6000614c0a82614b07565b9150614c1583614b07565b925082614c2557614c24614c5f565b5b828206905092915050565b7f4e487b7100000000000000000000000000000000000000000000000000000000600052601160045260246000fd5b7f4e487b7100000000000000000000000000000000000000000000000000000000600052601260045260246000fd5b7f4e487b7100000000000000000000000000000000000000000000000000000000600052602260045260246000fd5b7f4e487b7100000000000000000000000000000000000000000000000000000000600052604160045260246000fd5b6000601f19601f8301169050919050565b7f455243373231456e756d657261626c653a206f776e657220696e646578206f7560008201527f74206f6620626f756e6473000000000000000000000000000000000000000000602082015250565b7f4552433732313a207472616e7366657220746f206e6f6e20455243373231526560008201527f63656976657220696d706c656d656e7465720000000000000000000000000000602082015250565b7f4f776e61626c653a206e6577206f776e657220697320746865207a65726f206160008201527f6464726573730000000000000000000000000000000000000000000000000000602082015250565b7f4552433732313a207472616e736665722066726f6d20696e636f72726563742060008201527f6f776e6572000000000000000000000000000000000000000000000000000000602082015250565b7f4552433732313a20746f6b656e20616c7265616479206d696e74656400000000600082015250565b7f4552433732313a207472616e7366657220746f20746865207a65726f2061646460008201527f7265737300000000000000000000000000000000000000000000000000000000602082015250565b7f4552433732313a20617070726f766520746f2063616c6c657200000000000000600082015250565b7f4552433732313a206f70657261746f7220717565727920666f72206e6f6e657860008201527f697374656e7420746f6b656e0000000000000000000000000000000000000000602082015250565b7f4d617820737570706c7900000000000000000000000000000000000000000000600082015250565b7f4552433732313a20617070726f76652063616c6c6572206973206e6f74206f7760008201527f6e6572206e6f7220617070726f76656420666f7220616c6c0000000000000000602082015250565b7f4552433732313a2062616c616e636520717565727920666f7220746865207a6560008201527f726f206164647265737300000000000000000000000000000000000000000000602082015250565b7f4552433732313a206f776e657220717565727920666f72206e6f6e657869737460008201527f656e7420746f6b656e0000000000000000000000000000000000000000000000602082015250565b7f4552433732313a206d696e7420746f20746865207a65726f2061646472657373600082015250565b7f4552433732313a20617070726f76656420717565727920666f72206e6f6e657860008201527f697374656e7420746f6b656e0000000000000000000000000000000000000000602082015250565b7f4f776e61626c653a2063616c6c6572206973206e6f7420746865206f776e6572600082015250565b7f4552433732314d657461646174613a2055524920717565727920666f72206e6f60008201527f6e6578697374656e7420746f6b656e0000000000000000000000000000000000602082015250565b7f4e6f7420656e6f75676874206d6f6e6579000000000000000000000000000000600082015250565b7f4f7574206f6620626f756e647300000000000000000000000000000000000000600082015250565b7f4552433732313a20617070726f76616c20746f2063757272656e74206f776e6560008201527f7200000000000000000000000000000000000000000000000000000000000000602082015250565b7f4552433732313a207472616e736665722063616c6c6572206973206e6f74206f60008201527f776e6572206e6f7220617070726f766564000000000000000000000000000000602082015250565b7f455243373231456e756d657261626c653a20676c6f62616c20696e646578206f60008201527f7574206f6620626f756e64730000000000000000000000000000000000000000602082015250565b7f4e465420646f6e27742065786973740000000000000000000000000000000000600082015250565b7f436f6e7472616374206973207061757365640000000000000000000000000000600082015250565b7f4e6f7420617574686f72697a6564000000000000000000000000000000000000600082015250565b6152f281614a9d565b81146152fd57600080fd5b50565b61530981614aaf565b811461531457600080fd5b50565b61532081614abb565b811461532b57600080fd5b50565b61533781614b07565b811461534257600080fd5b5056fea264697066735822122080809bee3312b99416941313b6a808ce9669ca7638b6f962209202b12906182264736f6c63430008010033",
  "linkReferences": {},
  "deployedLinkReferences": {}
}