{
  "_format": "hh-sol-artifact-1",
  "contractName": "StadiumNFT",
  "sourceName": "contracts/StadiumNFT.sol",
  "abi": [
    {
      "inputs": [
        {
          "internalType": "string",
          "name": "_name",
          "type": "string"
        },
        {
          "internalType": "string",
          "name": "_symbol",
          "type": "string"
        },
        {
          "internalType": "string",
          "name": "_initBaseURI",
          "type": "string"
        },
        {
          "internalType": "uint256",
          "name": "_maxSupply",
          "type": "uint256"
        }
      ],
      "stateMutability": "nonpayable",
      "type": "constructor"
    },
    {
      "anonymous": false,
      "inputs": [
        {
          "indexed": true,
          "internalType": "address",
          "name": "previousAdmin",
          "type": "address"
        },
        {
          "indexed": true,
          "internalType": "address",
          "name": "newAdmin",
          "type": "address"
        }
      ],
      "name": "AdminTransferred",
      "type": "event"
    },
    {
      "anonymous": false,
      "inputs": [
        {
          "indexed": true,
          "internalType": "address",
          "name": "owner",
          "type": "address"
        },
        {
          "indexed": true,
          "internalType": "address",
          "name": "approved",
          "type": "address"
        },
        {
          "indexed": true,
          "internalType": "uint256",
          "name": "tokenId",
          "type": "uint256"
        }
      ],
      "name": "Approval",
      "type": "event"
    },
    {
      "anonymous": false,
      "inputs": [
        {
          "indexed": true,
          "internalType": "address",
          "name": "owner",
          "type": "address"
        },
        {
          "indexed": true,
          "internalType": "address",
          "name": "operator",
          "type": "address"
        },
        {
          "indexed": false,
          "internalType": "bool",
          "name": "approved",
          "type": "bool"
        }
      ],
      "name": "ApprovalForAll",
      "type": "event"
    },
    {
      "anonymous": false,
      "inputs": [
        {
          "indexed": true,
          "internalType": "address",
          "name": "previousOwner",
          "type": "address"
        },
        {
          "indexed": true,
          "internalType": "address",
          "name": "newOwner",
          "type": "address"
        }
      ],
      "name": "OwnershipTransferred",
      "type": "event"
    },
    {
      "anonymous": false,
      "inputs": [
        {
          "indexed": true,
          "internalType": "address",
          "name": "from",
          "type": "address"
        },
        {
          "indexed": true,
          "internalType": "address",
          "name": "to",
          "type": "address"
        },
        {
          "indexed": true,
          "internalType": "uint256",
          "name": "tokenId",
          "type": "uint256"
        }
      ],
      "name": "Transfer",
      "type": "event"
    },
    {
      "inputs": [],
      "name": "admin",
      "outputs": [
        {
          "internalType": "address",
          "name": "",
          "type": "address"
        }
      ],
      "stateMutability": "view",
      "type": "function"
    },
    {
      "inputs": [
        {
          "internalType": "address",
          "name": "to",
          "type": "address"
        },
        {
          "internalType": "uint256",
          "name": "tokenId",
          "type": "uint256"
        }
      ],
      "name": "approve",
      "outputs": [],
      "stateMutability": "nonpayable",
      "type": "function"
    },
    {
      "inputs": [
        {
          "internalType": "address",
          "name": "owner",
          "type": "address"
        }
      ],
      "name": "balanceOf",
      "outputs": [
        {
          "internalType": "uint256",
          "name": "",
          "type": "uint256"
        }
      ],
      "stateMutability": "view",
      "type": "function"
    },
    {
      "inputs": [],
      "name": "baseExtension",
      "outputs": [
        {
          "internalType": "string",
          "name": "",
          "type": "string"
        }
      ],
      "stateMutability": "view",
      "type": "function"
    },
    {
      "inputs": [],
      "name": "baseURI",
      "outputs": [
        {
          "internalType": "string",
          "name": "",
          "type": "string"
        }
      ],
      "stateMutability": "view",
      "type": "function"
    },
    {
      "inputs": [
        {
          "internalType": "uint256",
          "name": "_tokenId",
          "type": "uint256"
        },
        {
          "internalType": "string",
          "name": "_img",
          "type": "string"
        }
      ],
      "name": "changeImg",
      "outputs": [],
      "stateMutability": "nonpayable",
      "type": "function"
    },
    {
      "inputs": [
        {
          "internalType": "uint256",
          "name": "_tokenId",
          "type": "uint256"
        },
        {
          "internalType": "string",
          "name": "_url",
          "type": "string"
        }
      ],
      "name": "changeUrl",
      "outputs": [],
      "stateMutability": "nonpayable",
      "type": "function"
    },
    {
      "inputs": [],
      "name": "cost",
      "outputs": [
        {
          "internalType": "uint256",
          "name": "",
          "type": "uint256"
        }
      ],
      "stateMutability": "view",
      "type": "function"
    },
    {
      "inputs": [
        {
          "internalType": "uint256",
          "name": "tokenId",
          "type": "uint256"
        }
      ],
      "name": "getApproved",
      "outputs": [
        {
          "internalType": "address",
          "name": "",
          "type": "address"
        }
      ],
      "stateMutability": "view",
      "type": "function"
    },
    {
      "inputs": [
        {
          "internalType": "uint256",
          "name": "_tokenId",
          "type": "uint256"
        }
      ],
      "name": "getPieceInfo",
      "outputs": [
        {
          "components": [
            {
              "internalType": "string",
              "name": "img",
              "type": "string"
            },
            {
              "internalType": "string",
              "name": "url",
              "type": "string"
            }
          ],
          "internalType": "struct StadiumNFT.MapPiece",
          "name": "",
          "type": "tuple"
        }
      ],
      "stateMutability": "view",
      "type": "function"
    },
    {
      "inputs": [],
      "name": "getStadium",
      "outputs": [
        {
          "internalType": "address[]",
          "name": "",
          "type": "address[]"
        },
        {
          "internalType": "string[]",
          "name": "",
          "type": "string[]"
        },
        {
          "internalType": "string[]",
          "name": "",
          "type": "string[]"
        }
      ],
      "stateMutability": "view",
      "type": "function"
    },
    {
      "inputs": [
        {
          "internalType": "address",
          "name": "owner",
          "type": "address"
        },
        {
          "internalType": "address",
          "name": "operator",
          "type": "address"
        }
      ],
      "name": "isApprovedForAll",
      "outputs": [
        {
          "internalType": "bool",
          "name": "",
          "type": "bool"
        }
      ],
      "stateMutability": "view",
      "type": "function"
    },
    {
      "inputs": [],
      "name": "maxSupply",
      "outputs": [
        {
          "internalType": "uint256",
          "name": "",
          "type": "uint256"
        }
      ],
      "stateMutability": "view",
      "type": "function"
    },
    {
      "inputs": [
        {
          "internalType": "address",
          "name": "_to",
          "type": "address"
        },
        {
          "internalType": "uint256",
          "name": "_tokenToMint",
          "type": "uint256"
        }
      ],
      "name": "mint",
      "outputs": [],
      "stateMutability": "payable",
      "type": "function"
    },
    {
      "inputs": [],
      "name": "name",
      "outputs": [
        {
          "internalType": "string",
          "name": "",
          "type": "string"
        }
      ],
      "stateMutability": "view",
      "type": "function"
    },
    {
      "inputs": [],
      "name": "owner",
      "outputs": [
        {
          "internalType": "address",
          "name": "",
          "type": "address"
        }
      ],
      "stateMutability": "view",
      "type": "function"
    },
    {
      "inputs": [
        {
          "internalType": "uint256",
          "name": "tokenId",
          "type": "uint256"
        }
      ],
      "name": "ownerOf",
      "outputs": [
        {
          "internalType": "address",
          "name": "",
          "type": "address"
        }
      ],
      "stateMutability": "view",
      "type": "function"
    },
    {
      "inputs": [
        {
          "internalType": "bool",
          "name": "_state",
          "type": "bool"
        }
      ],
      "name": "pause",
      "outputs": [],
      "stateMutability": "nonpayable",
      "type": "function"
    },
    {
      "inputs": [],
      "name": "paused",
      "outputs": [
        {
          "internalType": "bool",
          "name": "",
          "type": "bool"
        }
      ],
      "stateMutability": "view",
      "type": "function"
    },
    {
      "inputs": [],
      "name": "renounceOwnership",
      "outputs": [],
      "stateMutability": "nonpayable",
      "type": "function"
    },
    {
      "inputs": [
        {
          "internalType": "address",
          "name": "from",
          "type": "address"
        },
        {
          "internalType": "address",
          "name": "to",
          "type": "address"
        },
        {
          "internalType": "uint256",
          "name": "tokenId",
          "type": "uint256"
        }
      ],
      "name": "safeTransferFrom",
      "outputs": [],
      "stateMutability": "nonpayable",
      "type": "function"
    },
    {
      "inputs": [
        {
          "internalType": "address",
          "name": "from",
          "type": "address"
        },
        {
          "internalType": "address",
          "name": "to",
          "type": "address"
        },
        {
          "internalType": "uint256",
          "name": "tokenId",
          "type": "uint256"
        },
        {
          "internalType": "bytes",
          "name": "_data",
          "type": "bytes"
        }
      ],
      "name": "safeTransferFrom",
      "outputs": [],
      "stateMutability": "nonpayable",
      "type": "function"
    },
    {
      "inputs": [
        {
          "internalType": "address",
          "name": "operator",
          "type": "address"
        },
        {
          "internalType": "bool",
          "name": "approved",
          "type": "bool"
        }
      ],
      "name": "setApprovalForAll",
      "outputs": [],
      "stateMutability": "nonpayable",
      "type": "function"
    },
    {
      "inputs": [
        {
          "internalType": "string",
          "name": "_newBaseExtension",
          "type": "string"
        }
      ],
      "name": "setBaseExtension",
      "outputs": [],
      "stateMutability": "nonpayable",
      "type": "function"
    },
    {
      "inputs": [
        {
          "internalType": "string",
          "name": "_newBaseURI",
          "type": "string"
        }
      ],
      "name": "setBaseURI",
      "outputs": [],
      "stateMutability": "nonpayable",
      "type": "function"
    },
    {
      "inputs": [
        {
          "internalType": "uint256",
          "name": "_newCost",
          "type": "uint256"
        }
      ],
      "name": "setCost",
      "outputs": [],
      "stateMutability": "nonpayable",
      "type": "function"
    },
    {
      "inputs": [
        {
          "internalType": "uint256",
          "name": "_newMaxSupply",
          "type": "uint256"
        }
      ],
      "name": "setMaxSupply",
      "outputs": [],
      "stateMutability": "nonpayable",
      "type": "function"
    },
    {
      "inputs": [
        {
          "internalType": "bytes4",
          "name": "interfaceId",
          "type": "bytes4"
        }
      ],
      "name": "supportsInterface",
      "outputs": [
        {
          "internalType": "bool",
          "name": "",
          "type": "bool"
        }
      ],
      "stateMutability": "view",
      "type": "function"
    },
    {
      "inputs": [],
      "name": "symbol",
      "outputs": [
        {
          "internalType": "string",
          "name": "",
          "type": "string"
        }
      ],
      "stateMutability": "view",
      "type": "function"
    },
    {
      "inputs": [
        {
          "internalType": "uint256",
          "name": "index",
          "type": "uint256"
        }
      ],
      "name": "tokenByIndex",
      "outputs": [
        {
          "internalType": "uint256",
          "name": "",
          "type": "uint256"
        }
      ],
      "stateMutability": "view",
      "type": "function"
    },
    {
      "inputs": [
        {
          "internalType": "address",
          "name": "owner",
          "type": "address"
        },
        {
          "internalType": "uint256",
          "name": "index",
          "type": "uint256"
        }
      ],
      "name": "tokenOfOwnerByIndex",
      "outputs": [
        {
          "internalType": "uint256",
          "name": "",
          "type": "uint256"
        }
      ],
      "stateMutability": "view",
      "type": "function"
    },
    {
      "inputs": [
        {
          "internalType": "uint256",
          "name": "tokenId",
          "type": "uint256"
        }
      ],
      "name": "tokenURI",
      "outputs": [
        {
          "internalType": "string",
          "name": "",
          "type": "string"
        }
      ],
      "stateMutability": "view",
      "type": "function"
    },
    {
      "inputs": [],
      "name": "totalSupply",
      "outputs": [
        {
          "internalType": "uint256",
          "name": "",
          "type": "uint256"
        }
      ],
      "stateMutability": "view",
      "type": "function"
    },
    {
      "inputs": [
        {
          "internalType": "address",
          "name": "newAdmin",
          "type": "address"
        }
      ],
      "name": "transferAdmin",
      "outputs": [],
      "stateMutability": "nonpayable",
      "type": "function"
    },
    {
      "inputs": [
        {
          "internalType": "address",
          "name": "from",
          "type": "address"
        },
        {
          "internalType": "address",
          "name": "to",
          "type": "address"
        },
        {
          "internalType": "uint256",
          "name": "tokenId",
          "type": "uint256"
        }
      ],
      "name": "transferFrom",
      "outputs": [],
      "stateMutability": "nonpayable",
      "type": "function"
    },
    {
      "inputs": [
        {
          "internalType": "address",
          "name": "newOwner",
          "type": "address"
        }
      ],
      "name": "transferOwnership",
      "outputs": [],
      "stateMutability": "nonpayable",
      "type": "function"
    },
    {
      "inputs": [],
      "name": "withdraw",
      "outputs": [],
      "stateMutability": "payable",
      "type": "function"
    }
  ],
  "bytecode": "0x60806040526040518060400160405280600581526020017f2e6a736f6e000000000000000000000000000000000000000000000000000000815250600e9080519060200190620000519291906200045d565b50662386f26fc10000600f556101a96010556000601160006101000a81548160ff0219169083151502179055503480156200008b57600080fd5b5060405162005b5538038062005b558339818101604052810190620000b1919062000596565b8383838383838160009080519060200190620000cf9291906200045d565b508060019080519060200190620000e89291906200045d565b5050506200010b620000ff6200015b60201b60201c565b6200016360201b60201c565b6200012b6200011f6200015b60201b60201c565b6200022960201b60201c565b6200013c82620002ef60201b60201c565b6200014d816200039a60201b60201c565b505050505050505062000864565b600033905090565b6000600a60009054906101000a900473ffffffffffffffffffffffffffffffffffffffff16905081600a60006101000a81548173ffffffffffffffffffffffffffffffffffffffff021916908373ffffffffffffffffffffffffffffffffffffffff1602179055508173ffffffffffffffffffffffffffffffffffffffff168173ffffffffffffffffffffffffffffffffffffffff167f8be0079c531659141344cd1fd0a4f28419497f9722a3daafe3b4186f6b6457e060405160405180910390a35050565b6000600b60009054906101000a900473ffffffffffffffffffffffffffffffffffffffff16905081600b60006101000a81548173ffffffffffffffffffffffffffffffffffffffff021916908373ffffffffffffffffffffffffffffffffffffffff1602179055508173ffffffffffffffffffffffffffffffffffffffff168173ffffffffffffffffffffffffffffffffffffffff167ff8ccb027dfcd135e000e9d45e6cc2d662578a8825d4c45b5e32e0adf67e79ec660405160405180910390a35050565b620002ff6200015b60201b60201c565b73ffffffffffffffffffffffffffffffffffffffff16620003256200043360201b60201c565b73ffffffffffffffffffffffffffffffffffffffff16146200037e576040517f08c379a0000000000000000000000000000000000000000000000000000000008152600401620003759062000674565b60405180910390fd5b80600d9080519060200190620003969291906200045d565b5050565b620003aa6200015b60201b60201c565b73ffffffffffffffffffffffffffffffffffffffff16620003d06200043360201b60201c565b73ffffffffffffffffffffffffffffffffffffffff161462000429576040517f08c379a0000000000000000000000000000000000000000000000000000000008152600401620004209062000674565b60405180910390fd5b8060108190555050565b6000600a60009054906101000a900473ffffffffffffffffffffffffffffffffffffffff16905090565b8280546200046b9062000746565b90600052602060002090601f0160209004810192826200048f5760008555620004db565b82601f10620004aa57805160ff1916838001178555620004db565b82800160010185558215620004db579182015b82811115620004da578251825591602001919060010190620004bd565b5b509050620004ea9190620004ee565b5090565b5b8082111562000509576000816000905550600101620004ef565b5090565b6000620005246200051e84620006bf565b62000696565b9050828152602081018484840111156200053d57600080fd5b6200054a84828562000710565b509392505050565b600082601f8301126200056457600080fd5b8151620005768482602086016200050d565b91505092915050565b60008151905062000590816200084a565b92915050565b60008060008060808587031215620005ad57600080fd5b600085015167ffffffffffffffff811115620005c857600080fd5b620005d68782880162000552565b945050602085015167ffffffffffffffff811115620005f457600080fd5b620006028782880162000552565b935050604085015167ffffffffffffffff8111156200062057600080fd5b6200062e8782880162000552565b925050606062000641878288016200057f565b91505092959194509250565b60006200065c602083620006f5565b9150620006698262000821565b602082019050919050565b600060208201905081810360008301526200068f816200064d565b9050919050565b6000620006a2620006b5565b9050620006b082826200077c565b919050565b6000604051905090565b600067ffffffffffffffff821115620006dd57620006dc620007e1565b5b620006e88262000810565b9050602081019050919050565b600082825260208201905092915050565b6000819050919050565b60005b838110156200073057808201518184015260208101905062000713565b8381111562000740576000848401525b50505050565b600060028204905060018216806200075f57607f821691505b60208210811415620007765762000775620007b2565b5b50919050565b620007878262000810565b810181811067ffffffffffffffff82111715620007a957620007a8620007e1565b5b80604052505050565b7f4e487b7100000000000000000000000000000000000000000000000000000000600052602260045260246000fd5b7f4e487b7100000000000000000000000000000000000000000000000000000000600052604160045260246000fd5b6000601f19601f8301169050919050565b7f4f776e61626c653a2063616c6c6572206973206e6f7420746865206f776e6572600082015250565b620008558162000706565b81146200086157600080fd5b50565b6152e180620008746000396000f3fe60806040526004361061021a5760003560e01c80636f8b44b011610123578063b88d4fde116100ab578063e444bb461161006f578063e444bb46146107a3578063e985e9c5146107cc578063f2fde38b14610809578063f851a44014610832578063fce584051461085d5761021a565b8063b88d4fde146106be578063c6682862146106e7578063c87b56dd14610712578063d5abeb011461074f578063da3ef23f1461077a5761021a565b80638d393b8f116100f25780638d393b8f146105e95780638da5cb5b1461061657806391132d8b1461064157806395d89b411461066a578063a22cb465146106955761021a565b80636f8b44b01461054357806370a082311461056c578063715018a6146105a957806375829def146105c05761021a565b80633ccfd60b116101a65780634f6ccce7116101755780634f6ccce71461044a57806355f804b3146104875780635c975abb146104b05780636352211e146104db5780636c0360eb146105185761021a565b80633ccfd60b146103d257806340c10f19146103dc57806342842e0e146103f857806344a0d68a146104215761021a565b8063095ea7b3116101ed578063095ea7b3146102ed57806313faede61461031657806318160ddd1461034157806323b872dd1461036c5780632f745c59146103955761021a565b806301ffc9a71461021f57806302329a291461025c57806306fdde0314610285578063081812fc146102b0575b600080fd5b34801561022b57600080fd5b5061024660048036038101906102419190613c52565b61089a565b604051610253919061446c565b60405180910390f35b34801561026857600080fd5b50610283600480360381019061027e9190613c29565b610914565b005b34801561029157600080fd5b5061029a6109ad565b6040516102a79190614487565b60405180910390f35b3480156102bc57600080fd5b506102d760048036038101906102d29190613ce5565b610a3f565b6040516102e491906143b9565b60405180910390f35b3480156102f957600080fd5b50610314600480360381019061030f9190613bed565b610ac4565b005b34801561032257600080fd5b5061032b610bdc565b60405161033891906147cb565b60405180910390f35b34801561034d57600080fd5b50610356610be2565b60405161036391906147cb565b60405180910390f35b34801561037857600080fd5b50610393600480360381019061038e9190613ae7565b610bef565b005b3480156103a157600080fd5b506103bc60048036038101906103b79190613bed565b610c4f565b6040516103c991906147cb565b60405180910390f35b6103da610cf4565b005b6103f660048036038101906103f19190613bed565b610db0565b005b34801561040457600080fd5b5061041f600480360381019061041a9190613ae7565b610f3d565b005b34801561042d57600080fd5b5061044860048036038101906104439190613ce5565b610f5d565b005b34801561045657600080fd5b50610471600480360381019061046c9190613ce5565b610fe3565b60405161047e91906147cb565b60405180910390f35b34801561049357600080fd5b506104ae60048036038101906104a99190613ca4565b61107a565b005b3480156104bc57600080fd5b506104c5611110565b6040516104d2919061446c565b60405180910390f35b3480156104e757600080fd5b5061050260048036038101906104fd9190613ce5565b611123565b60405161050f91906143b9565b60405180910390f35b34801561052457600080fd5b5061052d6111d5565b60405161053a9190614487565b60405180910390f35b34801561054f57600080fd5b5061056a60048036038101906105659190613ce5565b611263565b005b34801561057857600080fd5b50610593600480360381019061058e9190613a82565b6112e9565b6040516105a091906147cb565b60405180910390f35b3480156105b557600080fd5b506105be6113a1565b005b3480156105cc57600080fd5b506105e760048036038101906105e29190613a82565b611429565b005b3480156105f557600080fd5b506105fe611521565b60405161060d93929190614420565b60405180910390f35b34801561062257600080fd5b5061062b611a34565b60405161063891906143b9565b60405180910390f35b34801561064d57600080fd5b5061066860048036038101906106639190613d0e565b611a5e565b005b34801561067657600080fd5b5061067f611c0e565b60405161068c9190614487565b60405180910390f35b3480156106a157600080fd5b506106bc60048036038101906106b79190613bb1565b611ca0565b005b3480156106ca57600080fd5b506106e560048036038101906106e09190613b36565b611cb6565b005b3480156106f357600080fd5b506106fc611d18565b6040516107099190614487565b60405180910390f35b34801561071e57600080fd5b5061073960048036038101906107349190613ce5565b611da6565b6040516107469190614487565b60405180910390f35b34801561075b57600080fd5b50610764611e50565b60405161077191906147cb565b60405180910390f35b34801561078657600080fd5b506107a1600480360381019061079c9190613ca4565b611e56565b005b3480156107af57600080fd5b506107ca60048036038101906107c59190613d0e565b611eec565b005b3480156107d857600080fd5b506107f360048036038101906107ee9190613aab565b61209c565b604051610800919061446c565b60405180910390f35b34801561081557600080fd5b50610830600480360381019061082b9190613a82565b612130565b005b34801561083e57600080fd5b50610847612228565b60405161085491906143b9565b60405180910390f35b34801561086957600080fd5b50610884600480360381019061087f9190613ce5565b612252565b60405161089191906147a9565b60405180910390f35b60007f780e9d63000000000000000000000000000000000000000000000000000000007bffffffffffffffffffffffffffffffffffffffffffffffffffffffff1916827bffffffffffffffffffffffffffffffffffffffffffffffffffffffff1916148061090d575061090c826123a3565b5b9050919050565b61091c612485565b73ffffffffffffffffffffffffffffffffffffffff1661093a611a34565b73ffffffffffffffffffffffffffffffffffffffff1614610990576040517f08c379a000000000000000000000000000000000000000000000000000000000815260040161098790614669565b60405180910390fd5b80601160006101000a81548160ff02191690831515021790555050565b6060600080546109bc90614ab9565b80601f01602080910402602001604051908101604052809291908181526020018280546109e890614ab9565b8015610a355780601f10610a0a57610100808354040283529160200191610a35565b820191906000526020600020905b815481529060010190602001808311610a1857829003601f168201915b5050505050905090565b6000610a4a8261248d565b610a89576040517f08c379a0000000000000000000000000000000000000000000000000000000008152600401610a8090614649565b60405180910390fd5b6004600083815260200190815260200160002060009054906101000a900473ffffffffffffffffffffffffffffffffffffffff169050919050565b6000610acf82611123565b90508073ffffffffffffffffffffffffffffffffffffffff168373ffffffffffffffffffffffffffffffffffffffff161415610b40576040517f08c379a0000000000000000000000000000000000000000000000000000000008152600401610b37906146e9565b60405180910390fd5b8073ffffffffffffffffffffffffffffffffffffffff16610b5f612485565b73ffffffffffffffffffffffffffffffffffffffff161480610b8e5750610b8d81610b88612485565b61209c565b5b610bcd576040517f08c379a0000000000000000000000000000000000000000000000000000000008152600401610bc4906145c9565b60405180910390fd5b610bd783836124f9565b505050565b600f5481565b6000600880549050905090565b610c00610bfa612485565b826125b2565b610c3f576040517f08c379a0000000000000000000000000000000000000000000000000000000008152600401610c3690614709565b60405180910390fd5b610c4a838383612690565b505050565b6000610c5a836112e9565b8210610c9b576040517f08c379a0000000000000000000000000000000000000000000000000000000008152600401610c92906144a9565b60405180910390fd5b600660008473ffffffffffffffffffffffffffffffffffffffff1673ffffffffffffffffffffffffffffffffffffffff168152602001908152602001600020600083815260200190815260200160002054905092915050565b610cfc612485565b73ffffffffffffffffffffffffffffffffffffffff16610d1a611a34565b73ffffffffffffffffffffffffffffffffffffffff1614610d70576040517f08c379a0000000000000000000000000000000000000000000000000000000008152600401610d6790614669565b60405180910390fd5b3373ffffffffffffffffffffffffffffffffffffffff166108fc479081150290604051600060405180830381858888f19350505050610dae57600080fd5b565b601160009054906101000a900460ff1615610e00576040517f08c379a0000000000000000000000000000000000000000000000000000000008152600401610df790614769565b60405180910390fd5b600f54341015610e45576040517f08c379a0000000000000000000000000000000000000000000000000000000008152600401610e3c906146a9565b60405180910390fd5b601054610e52600c6128f7565b10610e92576040517f08c379a0000000000000000000000000000000000000000000000000000000008152600401610e89906145a9565b60405180910390fd5b60001515610e9f8261248d565b151514610ee1576040517f08c379a0000000000000000000000000000000000000000000000000000000008152600401610ed890614529565b60405180910390fd5b6010548110610f25576040517f08c379a0000000000000000000000000000000000000000000000000000000008152600401610f1c906146c9565b60405180910390fd5b610f2f8282612905565b610f39600c612923565b5050565b610f5883838360405180602001604052806000815250611cb6565b505050565b610f65612485565b73ffffffffffffffffffffffffffffffffffffffff16610f83611a34565b73ffffffffffffffffffffffffffffffffffffffff1614610fd9576040517f08c379a0000000000000000000000000000000000000000000000000000000008152600401610fd090614669565b60405180910390fd5b80600f8190555050565b6000610fed610be2565b821061102e576040517f08c379a000000000000000000000000000000000000000000000000000000000815260040161102590614729565b60405180910390fd5b60088281548110611068577f4e487b7100000000000000000000000000000000000000000000000000000000600052603260045260246000fd5b90600052602060002001549050919050565b611082612485565b73ffffffffffffffffffffffffffffffffffffffff166110a0611a34565b73ffffffffffffffffffffffffffffffffffffffff16146110f6576040517f08c379a00000000000000000000000000000000000000000000000000000000081526004016110ed90614669565b60405180910390fd5b80600d908051906020019061110c9291906137bc565b5050565b601160009054906101000a900460ff1681565b6000806002600084815260200190815260200160002060009054906101000a900473ffffffffffffffffffffffffffffffffffffffff169050600073ffffffffffffffffffffffffffffffffffffffff168173ffffffffffffffffffffffffffffffffffffffff1614156111cc576040517f08c379a00000000000000000000000000000000000000000000000000000000081526004016111c390614609565b60405180910390fd5b80915050919050565b600d80546111e290614ab9565b80601f016020809104026020016040519081016040528092919081815260200182805461120e90614ab9565b801561125b5780601f106112305761010080835404028352916020019161125b565b820191906000526020600020905b81548152906001019060200180831161123e57829003601f168201915b505050505081565b61126b612485565b73ffffffffffffffffffffffffffffffffffffffff16611289611a34565b73ffffffffffffffffffffffffffffffffffffffff16146112df576040517f08c379a00000000000000000000000000000000000000000000000000000000081526004016112d690614669565b60405180910390fd5b8060108190555050565b60008073ffffffffffffffffffffffffffffffffffffffff168273ffffffffffffffffffffffffffffffffffffffff16141561135a576040517f08c379a0000000000000000000000000000000000000000000000000000000008152600401611351906145e9565b60405180910390fd5b600360008373ffffffffffffffffffffffffffffffffffffffff1673ffffffffffffffffffffffffffffffffffffffff168152602001908152602001600020549050919050565b6113a9612485565b73ffffffffffffffffffffffffffffffffffffffff166113c7611a34565b73ffffffffffffffffffffffffffffffffffffffff161461141d576040517f08c379a000000000000000000000000000000000000000000000000000000000815260040161141490614669565b60405180910390fd5b6114276000612939565b565b611431612485565b73ffffffffffffffffffffffffffffffffffffffff1661144f611a34565b73ffffffffffffffffffffffffffffffffffffffff16146114a5576040517f08c379a000000000000000000000000000000000000000000000000000000000815260040161149c90614669565b60405180910390fd5b600073ffffffffffffffffffffffffffffffffffffffff168173ffffffffffffffffffffffffffffffffffffffff161415611515576040517f08c379a000000000000000000000000000000000000000000000000000000000815260040161150c906144e9565b60405180910390fd5b61151e816129ff565b50565b6060806060600060105467ffffffffffffffff81111561156a577f4e487b7100000000000000000000000000000000000000000000000000000000600052604160045260246000fd5b60405190808252806020026020018201604052801561159d57816020015b60608152602001906001900390816115885790505b509050600060105467ffffffffffffffff8111156115e4577f4e487b7100000000000000000000000000000000000000000000000000000000600052604160045260246000fd5b60405190808252806020026020018201604052801561161757816020015b60608152602001906001900390816116025790505b509050600060105467ffffffffffffffff81111561165e577f4e487b7100000000000000000000000000000000000000000000000000000000600052604160045260246000fd5b60405190808252806020026020018201604052801561168c5781602001602082028036833780820191505090505b50905060005b601054811015611a22576116a58161248d565b156118f1576012600082815260200190815260200160002060000180546116cb90614ab9565b80601f01602080910402602001604051908101604052809291908181526020018280546116f790614ab9565b80156117445780601f1061171957610100808354040283529160200191611744565b820191906000526020600020905b81548152906001019060200180831161172757829003601f168201915b5050505050848281518110611782577f4e487b7100000000000000000000000000000000000000000000000000000000600052603260045260246000fd5b60200260200101819052506012600082815260200190815260200160002060010180546117ae90614ab9565b80601f01602080910402602001604051908101604052809291908181526020018280546117da90614ab9565b80156118275780601f106117fc57610100808354040283529160200191611827565b820191906000526020600020905b81548152906001019060200180831161180a57829003601f168201915b5050505050838281518110611865577f4e487b7100000000000000000000000000000000000000000000000000000000600052603260045260246000fd5b602002602001018190525061187981611123565b8282815181106118b2577f4e487b7100000000000000000000000000000000000000000000000000000000600052603260045260246000fd5b602002602001019073ffffffffffffffffffffffffffffffffffffffff16908173ffffffffffffffffffffffffffffffffffffffff1681525050611a0f565b6040518060200160405280600081525084828151811061193a577f4e487b7100000000000000000000000000000000000000000000000000000000600052603260045260246000fd5b60200260200101819052506040518060200160405280600081525083828151811061198e577f4e487b7100000000000000000000000000000000000000000000000000000000600052603260045260246000fd5b602002602001018190525060008282815181106119d4577f4e487b7100000000000000000000000000000000000000000000000000000000600052603260045260246000fd5b602002602001019073ffffffffffffffffffffffffffffffffffffffff16908173ffffffffffffffffffffffffffffffffffffffff16815250505b8080611a1a90614b1c565b915050611692565b50808383955095509550505050909192565b6000600a60009054906101000a900473ffffffffffffffffffffffffffffffffffffffff16905090565b82611a6881611123565b73ffffffffffffffffffffffffffffffffffffffff163373ffffffffffffffffffffffffffffffffffffffff161480611ad35750611aa4612228565b73ffffffffffffffffffffffffffffffffffffffff163373ffffffffffffffffffffffffffffffffffffffff16145b80611b105750611ae1611a34565b73ffffffffffffffffffffffffffffffffffffffff163373ffffffffffffffffffffffffffffffffffffffff16145b611b4f576040517f08c379a0000000000000000000000000000000000000000000000000000000008152600401611b4690614789565b60405180910390fd5b6010548410611b93576040517f08c379a0000000000000000000000000000000000000000000000000000000008152600401611b8a906146c9565b60405180910390fd5b60011515611ba08561248d565b151514611be2576040517f08c379a0000000000000000000000000000000000000000000000000000000008152600401611bd990614749565b60405180910390fd5b8282601260008781526020019081526020016000206001019190611c07929190613842565b5050505050565b606060018054611c1d90614ab9565b80601f0160208091040260200160405190810160405280929190818152602001828054611c4990614ab9565b8015611c965780601f10611c6b57610100808354040283529160200191611c96565b820191906000526020600020905b815481529060010190602001808311611c7957829003601f168201915b5050505050905090565b611cb2611cab612485565b8383612ac5565b5050565b611cc7611cc1612485565b836125b2565b611d06576040517f08c379a0000000000000000000000000000000000000000000000000000000008152600401611cfd90614709565b60405180910390fd5b611d1284848484612c32565b50505050565b600e8054611d2590614ab9565b80601f0160208091040260200160405190810160405280929190818152602001828054611d5190614ab9565b8015611d9e5780601f10611d7357610100808354040283529160200191611d9e565b820191906000526020600020905b815481529060010190602001808311611d8157829003601f168201915b505050505081565b6060611db18261248d565b611df0576040517f08c379a0000000000000000000000000000000000000000000000000000000008152600401611de790614689565b60405180910390fd5b6000611dfa612c8e565b90506000815111611e1a5760405180602001604052806000815250611e48565b80611e2484612d20565b600e604051602001611e3893929190614388565b6040516020818303038152906040525b915050919050565b60105481565b611e5e612485565b73ffffffffffffffffffffffffffffffffffffffff16611e7c611a34565b73ffffffffffffffffffffffffffffffffffffffff1614611ed2576040517f08c379a0000000000000000000000000000000000000000000000000000000008152600401611ec990614669565b60405180910390fd5b80600e9080519060200190611ee89291906137bc565b5050565b82611ef681611123565b73ffffffffffffffffffffffffffffffffffffffff163373ffffffffffffffffffffffffffffffffffffffff161480611f615750611f32612228565b73ffffffffffffffffffffffffffffffffffffffff163373ffffffffffffffffffffffffffffffffffffffff16145b80611f9e5750611f6f611a34565b73ffffffffffffffffffffffffffffffffffffffff163373ffffffffffffffffffffffffffffffffffffffff16145b611fdd576040517f08c379a0000000000000000000000000000000000000000000000000000000008152600401611fd490614789565b60405180910390fd5b6010548410612021576040517f08c379a0000000000000000000000000000000000000000000000000000000008152600401612018906146c9565b60405180910390fd5b6001151561202e8561248d565b151514612070576040517f08c379a000000000000000000000000000000000000000000000000000000000815260040161206790614749565b60405180910390fd5b8282601260008781526020019081526020016000206000019190612095929190613842565b5050505050565b6000600560008473ffffffffffffffffffffffffffffffffffffffff1673ffffffffffffffffffffffffffffffffffffffff16815260200190815260200160002060008373ffffffffffffffffffffffffffffffffffffffff1673ffffffffffffffffffffffffffffffffffffffff16815260200190815260200160002060009054906101000a900460ff16905092915050565b612138612485565b73ffffffffffffffffffffffffffffffffffffffff16612156611a34565b73ffffffffffffffffffffffffffffffffffffffff16146121ac576040517f08c379a00000000000000000000000000000000000000000000000000000000081526004016121a390614669565b60405180910390fd5b600073ffffffffffffffffffffffffffffffffffffffff168173ffffffffffffffffffffffffffffffffffffffff16141561221c576040517f08c379a0000000000000000000000000000000000000000000000000000000008152600401612213906144e9565b60405180910390fd5b61222581612939565b50565b6000600b60009054906101000a900473ffffffffffffffffffffffffffffffffffffffff16905090565b61225a6138c8565b6012600083815260200190815260200160002060405180604001604052908160008201805461228890614ab9565b80601f01602080910402602001604051908101604052809291908181526020018280546122b490614ab9565b80156123015780601f106122d657610100808354040283529160200191612301565b820191906000526020600020905b8154815290600101906020018083116122e457829003601f168201915b5050505050815260200160018201805461231a90614ab9565b80601f016020809104026020016040519081016040528092919081815260200182805461234690614ab9565b80156123935780601f1061236857610100808354040283529160200191612393565b820191906000526020600020905b81548152906001019060200180831161237657829003601f168201915b5050505050815250509050919050565b60007f80ac58cd000000000000000000000000000000000000000000000000000000007bffffffffffffffffffffffffffffffffffffffffffffffffffffffff1916827bffffffffffffffffffffffffffffffffffffffffffffffffffffffff1916148061246e57507f5b5e139f000000000000000000000000000000000000000000000000000000007bffffffffffffffffffffffffffffffffffffffffffffffffffffffff1916827bffffffffffffffffffffffffffffffffffffffffffffffffffffffff1916145b8061247e575061247d82612ecd565b5b9050919050565b600033905090565b60008073ffffffffffffffffffffffffffffffffffffffff166002600084815260200190815260200160002060009054906101000a900473ffffffffffffffffffffffffffffffffffffffff1673ffffffffffffffffffffffffffffffffffffffff1614159050919050565b816004600083815260200190815260200160002060006101000a81548173ffffffffffffffffffffffffffffffffffffffff021916908373ffffffffffffffffffffffffffffffffffffffff160217905550808273ffffffffffffffffffffffffffffffffffffffff1661256c83611123565b73ffffffffffffffffffffffffffffffffffffffff167f8c5be1e5ebec7d5bd14f71427d1e84f3dd0314c0f7b2291e5b200ac8c7c3b92560405160405180910390a45050565b60006125bd8261248d565b6125fc576040517f08c379a00000000000000000000000000000000000000000000000000000000081526004016125f390614589565b60405180910390fd5b600061260783611123565b90508073ffffffffffffffffffffffffffffffffffffffff168473ffffffffffffffffffffffffffffffffffffffff16148061267657508373ffffffffffffffffffffffffffffffffffffffff1661265e84610a3f565b73ffffffffffffffffffffffffffffffffffffffff16145b806126875750612686818561209c565b5b91505092915050565b8273ffffffffffffffffffffffffffffffffffffffff166126b082611123565b73ffffffffffffffffffffffffffffffffffffffff1614612706576040517f08c379a00000000000000000000000000000000000000000000000000000000081526004016126fd90614509565b60405180910390fd5b600073ffffffffffffffffffffffffffffffffffffffff168273ffffffffffffffffffffffffffffffffffffffff161415612776576040517f08c379a000000000000000000000000000000000000000000000000000000000815260040161276d90614549565b60405180910390fd5b612781838383612f37565b61278c6000826124f9565b6001600360008573ffffffffffffffffffffffffffffffffffffffff1673ffffffffffffffffffffffffffffffffffffffff16815260200190815260200160002060008282546127dc91906149cf565b925050819055506001600360008473ffffffffffffffffffffffffffffffffffffffff1673ffffffffffffffffffffffffffffffffffffffff16815260200190815260200160002060008282546128339190614948565b92505081905550816002600083815260200190815260200160002060006101000a81548173ffffffffffffffffffffffffffffffffffffffff021916908373ffffffffffffffffffffffffffffffffffffffff160217905550808273ffffffffffffffffffffffffffffffffffffffff168473ffffffffffffffffffffffffffffffffffffffff167fddf252ad1be2c89b69c2b068fc378daa952ba7f163c4a11628f55a4df523b3ef60405160405180910390a46128f283838361304b565b505050565b600081600001549050919050565b61291f828260405180602001604052806000815250613050565b5050565b6001816000016000828254019250508190555050565b6000600a60009054906101000a900473ffffffffffffffffffffffffffffffffffffffff16905081600a60006101000a81548173ffffffffffffffffffffffffffffffffffffffff021916908373ffffffffffffffffffffffffffffffffffffffff1602179055508173ffffffffffffffffffffffffffffffffffffffff168173ffffffffffffffffffffffffffffffffffffffff167f8be0079c531659141344cd1fd0a4f28419497f9722a3daafe3b4186f6b6457e060405160405180910390a35050565b6000600b60009054906101000a900473ffffffffffffffffffffffffffffffffffffffff16905081600b60006101000a81548173ffffffffffffffffffffffffffffffffffffffff021916908373ffffffffffffffffffffffffffffffffffffffff1602179055508173ffffffffffffffffffffffffffffffffffffffff168173ffffffffffffffffffffffffffffffffffffffff167ff8ccb027dfcd135e000e9d45e6cc2d662578a8825d4c45b5e32e0adf67e79ec660405160405180910390a35050565b8173ffffffffffffffffffffffffffffffffffffffff168373ffffffffffffffffffffffffffffffffffffffff161415612b34576040517f08c379a0000000000000000000000000000000000000000000000000000000008152600401612b2b90614569565b60405180910390fd5b80600560008573ffffffffffffffffffffffffffffffffffffffff1673ffffffffffffffffffffffffffffffffffffffff16815260200190815260200160002060008473ffffffffffffffffffffffffffffffffffffffff1673ffffffffffffffffffffffffffffffffffffffff16815260200190815260200160002060006101000a81548160ff0219169083151502179055508173ffffffffffffffffffffffffffffffffffffffff168373ffffffffffffffffffffffffffffffffffffffff167f17307eab39ab6107e8899845ad3d59bd9653f200f220920489ca2b5937696c3183604051612c25919061446c565b60405180910390a3505050565b612c3d848484612690565b612c49848484846130ab565b612c88576040517f08c379a0000000000000000000000000000000000000000000000000000000008152600401612c7f906144c9565b60405180910390fd5b50505050565b6060600d8054612c9d90614ab9565b80601f0160208091040260200160405190810160405280929190818152602001828054612cc990614ab9565b8015612d165780601f10612ceb57610100808354040283529160200191612d16565b820191906000526020600020905b815481529060010190602001808311612cf957829003601f168201915b5050505050905090565b60606000821415612d68576040518060400160405280600181526020017f30000000000000000000000000000000000000000000000000000000000000008152509050612ec8565b600082905060005b60008214612d9a578080612d8390614b1c565b915050600a82612d93919061499e565b9150612d70565b60008167ffffffffffffffff811115612ddc577f4e487b7100000000000000000000000000000000000000000000000000000000600052604160045260246000fd5b6040519080825280601f01601f191660200182016040528015612e0e5781602001600182028036833780820191505090505b5090505b60008514612ec157600182612e2791906149cf565b9150600a85612e369190614b65565b6030612e429190614948565b60f81b818381518110612e7e577f4e487b7100000000000000000000000000000000000000000000000000000000600052603260045260246000fd5b60200101907effffffffffffffffffffffffffffffffffffffffffffffffffffffffffffff1916908160001a905350600a85612eba919061499e565b9450612e12565b8093505050505b919050565b60007f01ffc9a7000000000000000000000000000000000000000000000000000000007bffffffffffffffffffffffffffffffffffffffffffffffffffffffff1916827bffffffffffffffffffffffffffffffffffffffffffffffffffffffff1916149050919050565b612f42838383613242565b600073ffffffffffffffffffffffffffffffffffffffff168373ffffffffffffffffffffffffffffffffffffffff161415612f8557612f8081613247565b612fc4565b8173ffffffffffffffffffffffffffffffffffffffff168373ffffffffffffffffffffffffffffffffffffffff1614612fc357612fc28382613290565b5b5b600073ffffffffffffffffffffffffffffffffffffffff168273ffffffffffffffffffffffffffffffffffffffff16141561300757613002816133fd565b613046565b8273ffffffffffffffffffffffffffffffffffffffff168273ffffffffffffffffffffffffffffffffffffffff1614613045576130448282613540565b5b5b505050565b505050565b61305a83836135bf565b61306760008484846130ab565b6130a6576040517f08c379a000000000000000000000000000000000000000000000000000000000815260040161309d906144c9565b60405180910390fd5b505050565b60006130cc8473ffffffffffffffffffffffffffffffffffffffff16613799565b15613235578373ffffffffffffffffffffffffffffffffffffffff1663150b7a026130f5612485565b8786866040518563ffffffff1660e01b815260040161311794939291906143d4565b602060405180830381600087803b15801561313157600080fd5b505af192505050801561316257506040513d601f19601f8201168201806040525081019061315f9190613c7b565b60015b6131e5573d8060008114613192576040519150601f19603f3d011682016040523d82523d6000602084013e613197565b606091505b506000815114156131dd576040517f08c379a00000000000000000000000000000000000000000000000000000000081526004016131d4906144c9565b60405180910390fd5b805181602001fd5b63150b7a0260e01b7bffffffffffffffffffffffffffffffffffffffffffffffffffffffff1916817bffffffffffffffffffffffffffffffffffffffffffffffffffffffff19161491505061323a565b600190505b949350505050565b505050565b6008805490506009600083815260200190815260200160002081905550600881908060018154018082558091505060019003906000526020600020016000909190919091505550565b6000600161329d846112e9565b6132a791906149cf565b905060006007600084815260200190815260200160002054905081811461338c576000600660008673ffffffffffffffffffffffffffffffffffffffff1673ffffffffffffffffffffffffffffffffffffffff168152602001908152602001600020600084815260200190815260200160002054905080600660008773ffffffffffffffffffffffffffffffffffffffff1673ffffffffffffffffffffffffffffffffffffffff168152602001908152602001600020600084815260200190815260200160002081905550816007600083815260200190815260200160002081905550505b6007600084815260200190815260200160002060009055600660008573ffffffffffffffffffffffffffffffffffffffff1673ffffffffffffffffffffffffffffffffffffffff16815260200190815260200160002060008381526020019081526020016000206000905550505050565b6000600160088054905061341191906149cf565b9050600060096000848152602001908152602001600020549050600060088381548110613467577f4e487b7100000000000000000000000000000000000000000000000000000000600052603260045260246000fd5b9060005260206000200154905080600883815481106134af577f4e487b7100000000000000000000000000000000000000000000000000000000600052603260045260246000fd5b906000526020600020018190555081600960008381526020019081526020016000208190555060096000858152602001908152602001600020600090556008805480613524577f4e487b7100000000000000000000000000000000000000000000000000000000600052603160045260246000fd5b6001900381819060005260206000200160009055905550505050565b600061354b836112e9565b905081600660008573ffffffffffffffffffffffffffffffffffffffff1673ffffffffffffffffffffffffffffffffffffffff168152602001908152602001600020600083815260200190815260200160002081905550806007600084815260200190815260200160002081905550505050565b600073ffffffffffffffffffffffffffffffffffffffff168273ffffffffffffffffffffffffffffffffffffffff16141561362f576040517f08c379a000000000000000000000000000000000000000000000000000000000815260040161362690614629565b60405180910390fd5b6136388161248d565b15613678576040517f08c379a000000000000000000000000000000000000000000000000000000000815260040161366f90614529565b60405180910390fd5b61368460008383612f37565b6001600360008473ffffffffffffffffffffffffffffffffffffffff1673ffffffffffffffffffffffffffffffffffffffff16815260200190815260200160002060008282546136d49190614948565b92505081905550816002600083815260200190815260200160002060006101000a81548173ffffffffffffffffffffffffffffffffffffffff021916908373ffffffffffffffffffffffffffffffffffffffff160217905550808273ffffffffffffffffffffffffffffffffffffffff16600073ffffffffffffffffffffffffffffffffffffffff167fddf252ad1be2c89b69c2b068fc378daa952ba7f163c4a11628f55a4df523b3ef60405160405180910390a46137956000838361304b565b5050565b6000808273ffffffffffffffffffffffffffffffffffffffff163b119050919050565b8280546137c890614ab9565b90600052602060002090601f0160209004810192826137ea5760008555613831565b82601f1061380357805160ff1916838001178555613831565b82800160010185558215613831579182015b82811115613830578251825591602001919060010190613815565b5b50905061383e91906138e2565b5090565b82805461384e90614ab9565b90600052602060002090601f01602090048101928261387057600085556138b7565b82601f1061388957803560ff19168380011785556138b7565b828001600101855582156138b7579182015b828111156138b657823582559160200191906001019061389b565b5b5090506138c491906138e2565b5090565b604051806040016040528060608152602001606081525090565b5b808211156138fb5760008160009055506001016138e3565b5090565b600061391261390d8461480b565b6147e6565b90508281526020810184848401111561392a57600080fd5b613935848285614a77565b509392505050565b600061395061394b8461483c565b6147e6565b90508281526020810184848401111561396857600080fd5b613973848285614a77565b509392505050565b60008135905061398a8161524f565b92915050565b60008135905061399f81615266565b92915050565b6000813590506139b48161527d565b92915050565b6000815190506139c98161527d565b92915050565b600082601f8301126139e057600080fd5b81356139f08482602086016138ff565b91505092915050565b60008083601f840112613a0b57600080fd5b8235905067ffffffffffffffff811115613a2457600080fd5b602083019150836001820283011115613a3c57600080fd5b9250929050565b600082601f830112613a5457600080fd5b8135613a6484826020860161393d565b91505092915050565b600081359050613a7c81615294565b92915050565b600060208284031215613a9457600080fd5b6000613aa28482850161397b565b91505092915050565b60008060408385031215613abe57600080fd5b6000613acc8582860161397b565b9250506020613add8582860161397b565b9150509250929050565b600080600060608486031215613afc57600080fd5b6000613b0a8682870161397b565b9350506020613b1b8682870161397b565b9250506040613b2c86828701613a6d565b9150509250925092565b60008060008060808587031215613b4c57600080fd5b6000613b5a8782880161397b565b9450506020613b6b8782880161397b565b9350506040613b7c87828801613a6d565b925050606085013567ffffffffffffffff811115613b9957600080fd5b613ba5878288016139cf565b91505092959194509250565b60008060408385031215613bc457600080fd5b6000613bd28582860161397b565b9250506020613be385828601613990565b9150509250929050565b60008060408385031215613c0057600080fd5b6000613c0e8582860161397b565b9250506020613c1f85828601613a6d565b9150509250929050565b600060208284031215613c3b57600080fd5b6000613c4984828501613990565b91505092915050565b600060208284031215613c6457600080fd5b6000613c72848285016139a5565b91505092915050565b600060208284031215613c8d57600080fd5b6000613c9b848285016139ba565b91505092915050565b600060208284031215613cb657600080fd5b600082013567ffffffffffffffff811115613cd057600080fd5b613cdc84828501613a43565b91505092915050565b600060208284031215613cf757600080fd5b6000613d0584828501613a6d565b91505092915050565b600080600060408486031215613d2357600080fd5b6000613d3186828701613a6d565b935050602084013567ffffffffffffffff811115613d4e57600080fd5b613d5a868287016139f9565b92509250509250925092565b6000613d728383613d92565b60208301905092915050565b6000613d8a8383613ecb565b905092915050565b613d9b81614a03565b82525050565b613daa81614a03565b82525050565b6000613dbb826148a2565b613dc581856148e8565b9350613dd08361486d565b8060005b83811015613e01578151613de88882613d66565b9750613df3836148ce565b925050600181019050613dd4565b5085935050505092915050565b6000613e19826148ad565b613e2381856148f9565b935083602082028501613e358561487d565b8060005b85811015613e715784840389528151613e528582613d7e565b9450613e5d836148db565b925060208a01995050600181019050613e39565b50829750879550505050505092915050565b613e8c81614a15565b82525050565b6000613e9d826148b8565b613ea7818561490a565b9350613eb7818560208601614a86565b613ec081614c52565b840191505092915050565b6000613ed6826148c3565b613ee0818561491b565b9350613ef0818560208601614a86565b613ef981614c52565b840191505092915050565b6000613f0f826148c3565b613f19818561492c565b9350613f29818560208601614a86565b613f3281614c52565b840191505092915050565b6000613f48826148c3565b613f52818561493d565b9350613f62818560208601614a86565b80840191505092915050565b60008154613f7b81614ab9565b613f85818661493d565b94506001821660008114613fa05760018114613fb157613fe4565b60ff19831686528186019350613fe4565b613fba8561488d565b60005b83811015613fdc57815481890152600182019150602081019050613fbd565b838801955050505b50505092915050565b6000613ffa602b8361492c565b915061400582614c63565b604082019050919050565b600061401d60328361492c565b915061402882614cb2565b604082019050919050565b600061404060268361492c565b915061404b82614d01565b604082019050919050565b600061406360258361492c565b915061406e82614d50565b604082019050919050565b6000614086601c8361492c565b915061409182614d9f565b602082019050919050565b60006140a960248361492c565b91506140b482614dc8565b604082019050919050565b60006140cc60198361492c565b91506140d782614e17565b602082019050919050565b60006140ef602c8361492c565b91506140fa82614e40565b604082019050919050565b6000614112600a8361492c565b915061411d82614e8f565b602082019050919050565b600061413560388361492c565b915061414082614eb8565b604082019050919050565b6000614158602a8361492c565b915061416382614f07565b604082019050919050565b600061417b60298361492c565b915061418682614f56565b604082019050919050565b600061419e60208361492c565b91506141a982614fa5565b602082019050919050565b60006141c1602c8361492c565b91506141cc82614fce565b604082019050919050565b60006141e460208361492c565b91506141ef8261501d565b602082019050919050565b6000614207602f8361492c565b915061421282615046565b604082019050919050565b600061422a60118361492c565b915061423582615095565b602082019050919050565b600061424d600d8361492c565b9150614258826150be565b602082019050919050565b600061427060218361492c565b915061427b826150e7565b604082019050919050565b600061429360318361492c565b915061429e82615136565b604082019050919050565b60006142b6602c8361492c565b91506142c182615185565b604082019050919050565b60006142d9600f8361492c565b91506142e4826151d4565b602082019050919050565b60006142fc60128361492c565b9150614307826151fd565b602082019050919050565b600061431f600e8361492c565b915061432a82615226565b602082019050919050565b600060408301600083015184820360008601526143528282613ecb565b9150506020830151848203602086015261436c8282613ecb565b9150508091505092915050565b61438281614a6d565b82525050565b60006143948286613f3d565b91506143a08285613f3d565b91506143ac8284613f6e565b9150819050949350505050565b60006020820190506143ce6000830184613da1565b92915050565b60006080820190506143e96000830187613da1565b6143f66020830186613da1565b6144036040830185614379565b81810360608301526144158184613e92565b905095945050505050565b6000606082019050818103600083015261443a8186613db0565b9050818103602083015261444e8185613e0e565b905081810360408301526144628184613e0e565b9050949350505050565b60006020820190506144816000830184613e83565b92915050565b600060208201905081810360008301526144a18184613f04565b905092915050565b600060208201905081810360008301526144c281613fed565b9050919050565b600060208201905081810360008301526144e281614010565b9050919050565b6000602082019050818103600083015261450281614033565b9050919050565b6000602082019050818103600083015261452281614056565b9050919050565b6000602082019050818103600083015261454281614079565b9050919050565b600060208201905081810360008301526145628161409c565b9050919050565b60006020820190508181036000830152614582816140bf565b9050919050565b600060208201905081810360008301526145a2816140e2565b9050919050565b600060208201905081810360008301526145c281614105565b9050919050565b600060208201905081810360008301526145e281614128565b9050919050565b600060208201905081810360008301526146028161414b565b9050919050565b600060208201905081810360008301526146228161416e565b9050919050565b6000602082019050818103600083015261464281614191565b9050919050565b60006020820190508181036000830152614662816141b4565b9050919050565b60006020820190508181036000830152614682816141d7565b9050919050565b600060208201905081810360008301526146a2816141fa565b9050919050565b600060208201905081810360008301526146c28161421d565b9050919050565b600060208201905081810360008301526146e281614240565b9050919050565b6000602082019050818103600083015261470281614263565b9050919050565b6000602082019050818103600083015261472281614286565b9050919050565b60006020820190508181036000830152614742816142a9565b9050919050565b60006020820190508181036000830152614762816142cc565b9050919050565b60006020820190508181036000830152614782816142ef565b9050919050565b600060208201905081810360008301526147a281614312565b9050919050565b600060208201905081810360008301526147c38184614335565b905092915050565b60006020820190506147e06000830184614379565b92915050565b60006147f0614801565b90506147fc8282614aeb565b919050565b6000604051905090565b600067ffffffffffffffff82111561482657614825614c23565b5b61482f82614c52565b9050602081019050919050565b600067ffffffffffffffff82111561485757614856614c23565b5b61486082614c52565b9050602081019050919050565b6000819050602082019050919050565b6000819050602082019050919050565b60008190508160005260206000209050919050565b600081519050919050565b600081519050919050565b600081519050919050565b600081519050919050565b6000602082019050919050565b6000602082019050919050565b600082825260208201905092915050565b600082825260208201905092915050565b600082825260208201905092915050565b600082825260208201905092915050565b600082825260208201905092915050565b600081905092915050565b600061495382614a6d565b915061495e83614a6d565b9250827fffffffffffffffffffffffffffffffffffffffffffffffffffffffffffffffff0382111561499357614992614b96565b5b828201905092915050565b60006149a982614a6d565b91506149b483614a6d565b9250826149c4576149c3614bc5565b5b828204905092915050565b60006149da82614a6d565b91506149e583614a6d565b9250828210156149f8576149f7614b96565b5b828203905092915050565b6000614a0e82614a4d565b9050919050565b60008115159050919050565b60007fffffffff0000000000000000000000000000000000000000000000000000000082169050919050565b600073ffffffffffffffffffffffffffffffffffffffff82169050919050565b6000819050919050565b82818337600083830152505050565b60005b83811015614aa4578082015181840152602081019050614a89565b83811115614ab3576000848401525b50505050565b60006002820490506001821680614ad157607f821691505b60208210811415614ae557614ae4614bf4565b5b50919050565b614af482614c52565b810181811067ffffffffffffffff82111715614b1357614b12614c23565b5b80604052505050565b6000614b2782614a6d565b91507fffffffffffffffffffffffffffffffffffffffffffffffffffffffffffffffff821415614b5a57614b59614b96565b5b600182019050919050565b6000614b7082614a6d565b9150614b7b83614a6d565b925082614b8b57614b8a614bc5565b5b828206905092915050565b7f4e487b7100000000000000000000000000000000000000000000000000000000600052601160045260246000fd5b7f4e487b7100000000000000000000000000000000000000000000000000000000600052601260045260246000fd5b7f4e487b7100000000000000000000000000000000000000000000000000000000600052602260045260246000fd5b7f4e487b7100000000000000000000000000000000000000000000000000000000600052604160045260246000fd5b6000601f19601f8301169050919050565b7f455243373231456e756d657261626c653a206f776e657220696e646578206f7560008201527f74206f6620626f756e6473000000000000000000000000000000000000000000602082015250565b7f4552433732313a207472616e7366657220746f206e6f6e20455243373231526560008201527f63656976657220696d706c656d656e7465720000000000000000000000000000602082015250565b7f4f776e61626c653a206e6577206f776e657220697320746865207a65726f206160008201527f6464726573730000000000000000000000000000000000000000000000000000602082015250565b7f4552433732313a207472616e736665722066726f6d20696e636f72726563742060008201527f6f776e6572000000000000000000000000000000000000000000000000000000602082015250565b7f4552433732313a20746f6b656e20616c7265616479206d696e74656400000000600082015250565b7f4552433732313a207472616e7366657220746f20746865207a65726f2061646460008201527f7265737300000000000000000000000000000000000000000000000000000000602082015250565b7f4552433732313a20617070726f766520746f2063616c6c657200000000000000600082015250565b7f4552433732313a206f70657261746f7220717565727920666f72206e6f6e657860008201527f697374656e7420746f6b656e0000000000000000000000000000000000000000602082015250565b7f4d617820737570706c7900000000000000000000000000000000000000000000600082015250565b7f4552433732313a20617070726f76652063616c6c6572206973206e6f74206f7760008201527f6e6572206e6f7220617070726f76656420666f7220616c6c0000000000000000602082015250565b7f4552433732313a2062616c616e636520717565727920666f7220746865207a6560008201527f726f206164647265737300000000000000000000000000000000000000000000602082015250565b7f4552433732313a206f776e657220717565727920666f72206e6f6e657869737460008201527f656e7420746f6b656e0000000000000000000000000000000000000000000000602082015250565b7f4552433732313a206d696e7420746f20746865207a65726f2061646472657373600082015250565b7f4552433732313a20617070726f76656420717565727920666f72206e6f6e657860008201527f697374656e7420746f6b656e0000000000000000000000000000000000000000602082015250565b7f4f776e61626c653a2063616c6c6572206973206e6f7420746865206f776e6572600082015250565b7f4552433732314d657461646174613a2055524920717565727920666f72206e6f60008201527f6e6578697374656e7420746f6b656e0000000000000000000000000000000000602082015250565b7f4e6f7420656e6f75676874206d6f6e6579000000000000000000000000000000600082015250565b7f4f7574206f6620626f756e647300000000000000000000000000000000000000600082015250565b7f4552433732313a20617070726f76616c20746f2063757272656e74206f776e6560008201527f7200000000000000000000000000000000000000000000000000000000000000602082015250565b7f4552433732313a207472616e736665722063616c6c6572206973206e6f74206f60008201527f776e6572206e6f7220617070726f766564000000000000000000000000000000602082015250565b7f455243373231456e756d657261626c653a20676c6f62616c20696e646578206f60008201527f7574206f6620626f756e64730000000000000000000000000000000000000000602082015250565b7f4e465420646f6e27742065786973740000000000000000000000000000000000600082015250565b7f436f6e7472616374206973207061757365640000000000000000000000000000600082015250565b7f4e6f7420617574686f72697a6564000000000000000000000000000000000000600082015250565b61525881614a03565b811461526357600080fd5b50565b61526f81614a15565b811461527a57600080fd5b50565b61528681614a21565b811461529157600080fd5b50565b61529d81614a6d565b81146152a857600080fd5b5056fea26469706673582212202d709ab2feb282e52a48cfd04abfbc5f66a81cddbe91a6d7524e80485fc267c164736f6c63430008010033",
  "linkReferences": {},
  "deployedLinkReferences": {}
}