{
  "_format": "hh-sol-artifact-1",
  "contractName": "StadiumNFT",
  "sourceName": "contracts/StadiumNFT.sol",
  "abi": [
    {
      "inputs": [
        {
          "internalType": "string",
          "name": "_name",
          "type": "string"
        },
        {
          "internalType": "string",
          "name": "_symbol",
          "type": "string"
        },
        {
          "internalType": "string",
          "name": "_initBaseURI",
          "type": "string"
        },
        {
          "internalType": "uint256",
          "name": "_maxSupply",
          "type": "uint256"
        }
      ],
      "stateMutability": "nonpayable",
      "type": "constructor"
    },
    {
      "anonymous": false,
      "inputs": [
        {
          "indexed": true,
          "internalType": "address",
          "name": "previousAdmin",
          "type": "address"
        },
        {
          "indexed": true,
          "internalType": "address",
          "name": "newAdmin",
          "type": "address"
        }
      ],
      "name": "AdminTransferred",
      "type": "event"
    },
    {
      "anonymous": false,
      "inputs": [
        {
          "indexed": true,
          "internalType": "address",
          "name": "owner",
          "type": "address"
        },
        {
          "indexed": true,
          "internalType": "address",
          "name": "approved",
          "type": "address"
        },
        {
          "indexed": true,
          "internalType": "uint256",
          "name": "tokenId",
          "type": "uint256"
        }
      ],
      "name": "Approval",
      "type": "event"
    },
    {
      "anonymous": false,
      "inputs": [
        {
          "indexed": true,
          "internalType": "address",
          "name": "owner",
          "type": "address"
        },
        {
          "indexed": true,
          "internalType": "address",
          "name": "operator",
          "type": "address"
        },
        {
          "indexed": false,
          "internalType": "bool",
          "name": "approved",
          "type": "bool"
        }
      ],
      "name": "ApprovalForAll",
      "type": "event"
    },
    {
      "anonymous": false,
      "inputs": [
        {
          "indexed": true,
          "internalType": "address",
          "name": "previousOwner",
          "type": "address"
        },
        {
          "indexed": true,
          "internalType": "address",
          "name": "newOwner",
          "type": "address"
        }
      ],
      "name": "OwnershipTransferred",
      "type": "event"
    },
    {
      "anonymous": false,
      "inputs": [
        {
          "indexed": true,
          "internalType": "address",
          "name": "from",
          "type": "address"
        },
        {
          "indexed": true,
          "internalType": "address",
          "name": "to",
          "type": "address"
        },
        {
          "indexed": true,
          "internalType": "uint256",
          "name": "tokenId",
          "type": "uint256"
        }
      ],
      "name": "Transfer",
      "type": "event"
    },
    {
      "inputs": [],
      "name": "admin",
      "outputs": [
        {
          "internalType": "address",
          "name": "",
          "type": "address"
        }
      ],
      "stateMutability": "view",
      "type": "function"
    },
    {
      "inputs": [
        {
          "internalType": "address",
          "name": "to",
          "type": "address"
        },
        {
          "internalType": "uint256",
          "name": "tokenId",
          "type": "uint256"
        }
      ],
      "name": "approve",
      "outputs": [],
      "stateMutability": "nonpayable",
      "type": "function"
    },
    {
      "inputs": [
        {
          "internalType": "address",
          "name": "owner",
          "type": "address"
        }
      ],
      "name": "balanceOf",
      "outputs": [
        {
          "internalType": "uint256",
          "name": "",
          "type": "uint256"
        }
      ],
      "stateMutability": "view",
      "type": "function"
    },
    {
      "inputs": [],
      "name": "baseExtension",
      "outputs": [
        {
          "internalType": "string",
          "name": "",
          "type": "string"
        }
      ],
      "stateMutability": "view",
      "type": "function"
    },
    {
      "inputs": [],
      "name": "baseURI",
      "outputs": [
        {
          "internalType": "string",
          "name": "",
          "type": "string"
        }
      ],
      "stateMutability": "view",
      "type": "function"
    },
    {
      "inputs": [
        {
          "internalType": "uint256",
          "name": "_tokenId",
          "type": "uint256"
        },
        {
          "internalType": "string",
          "name": "_img",
          "type": "string"
        }
      ],
      "name": "changeImg",
      "outputs": [],
      "stateMutability": "nonpayable",
      "type": "function"
    },
    {
      "inputs": [
        {
          "internalType": "uint256",
          "name": "_tokenId",
          "type": "uint256"
        },
        {
          "internalType": "string",
          "name": "_url",
          "type": "string"
        }
      ],
      "name": "changeUrl",
      "outputs": [],
      "stateMutability": "nonpayable",
      "type": "function"
    },
    {
      "inputs": [],
      "name": "cost",
      "outputs": [
        {
          "internalType": "uint256",
          "name": "",
          "type": "uint256"
        }
      ],
      "stateMutability": "view",
      "type": "function"
    },
    {
      "inputs": [
        {
          "internalType": "uint256",
          "name": "tokenId",
          "type": "uint256"
        }
      ],
      "name": "getApproved",
      "outputs": [
        {
          "internalType": "address",
          "name": "",
          "type": "address"
        }
      ],
      "stateMutability": "view",
      "type": "function"
    },
    {
      "inputs": [
        {
          "internalType": "uint256",
          "name": "_tokenId",
          "type": "uint256"
        }
      ],
      "name": "getPieceInfo",
      "outputs": [
        {
          "components": [
            {
              "internalType": "string",
              "name": "img",
              "type": "string"
            },
            {
              "internalType": "string",
              "name": "url",
              "type": "string"
            }
          ],
          "internalType": "struct StadiumNFT.MapPiece",
          "name": "",
          "type": "tuple"
        }
      ],
      "stateMutability": "view",
      "type": "function"
    },
    {
      "inputs": [],
      "name": "getStadium",
      "outputs": [
        {
          "internalType": "string[]",
          "name": "",
          "type": "string[]"
        },
        {
          "internalType": "string[]",
          "name": "",
          "type": "string[]"
        }
      ],
      "stateMutability": "view",
      "type": "function"
    },
    {
      "inputs": [
        {
          "internalType": "address",
          "name": "owner",
          "type": "address"
        },
        {
          "internalType": "address",
          "name": "operator",
          "type": "address"
        }
      ],
      "name": "isApprovedForAll",
      "outputs": [
        {
          "internalType": "bool",
          "name": "",
          "type": "bool"
        }
      ],
      "stateMutability": "view",
      "type": "function"
    },
    {
      "inputs": [],
      "name": "maxSupply",
      "outputs": [
        {
          "internalType": "uint256",
          "name": "",
          "type": "uint256"
        }
      ],
      "stateMutability": "view",
      "type": "function"
    },
    {
      "inputs": [
        {
          "internalType": "address",
          "name": "_to",
          "type": "address"
        }
      ],
      "name": "mint",
      "outputs": [],
      "stateMutability": "payable",
      "type": "function"
    },
    {
      "inputs": [],
      "name": "name",
      "outputs": [
        {
          "internalType": "string",
          "name": "",
          "type": "string"
        }
      ],
      "stateMutability": "view",
      "type": "function"
    },
    {
      "inputs": [],
      "name": "owner",
      "outputs": [
        {
          "internalType": "address",
          "name": "",
          "type": "address"
        }
      ],
      "stateMutability": "view",
      "type": "function"
    },
    {
      "inputs": [
        {
          "internalType": "uint256",
          "name": "tokenId",
          "type": "uint256"
        }
      ],
      "name": "ownerOf",
      "outputs": [
        {
          "internalType": "address",
          "name": "",
          "type": "address"
        }
      ],
      "stateMutability": "view",
      "type": "function"
    },
    {
      "inputs": [
        {
          "internalType": "bool",
          "name": "_state",
          "type": "bool"
        }
      ],
      "name": "pause",
      "outputs": [],
      "stateMutability": "nonpayable",
      "type": "function"
    },
    {
      "inputs": [],
      "name": "paused",
      "outputs": [
        {
          "internalType": "bool",
          "name": "",
          "type": "bool"
        }
      ],
      "stateMutability": "view",
      "type": "function"
    },
    {
      "inputs": [],
      "name": "renounceOwnership",
      "outputs": [],
      "stateMutability": "nonpayable",
      "type": "function"
    },
    {
      "inputs": [
        {
          "internalType": "address",
          "name": "from",
          "type": "address"
        },
        {
          "internalType": "address",
          "name": "to",
          "type": "address"
        },
        {
          "internalType": "uint256",
          "name": "tokenId",
          "type": "uint256"
        }
      ],
      "name": "safeTransferFrom",
      "outputs": [],
      "stateMutability": "nonpayable",
      "type": "function"
    },
    {
      "inputs": [
        {
          "internalType": "address",
          "name": "from",
          "type": "address"
        },
        {
          "internalType": "address",
          "name": "to",
          "type": "address"
        },
        {
          "internalType": "uint256",
          "name": "tokenId",
          "type": "uint256"
        },
        {
          "internalType": "bytes",
          "name": "_data",
          "type": "bytes"
        }
      ],
      "name": "safeTransferFrom",
      "outputs": [],
      "stateMutability": "nonpayable",
      "type": "function"
    },
    {
      "inputs": [
        {
          "internalType": "address",
          "name": "operator",
          "type": "address"
        },
        {
          "internalType": "bool",
          "name": "approved",
          "type": "bool"
        }
      ],
      "name": "setApprovalForAll",
      "outputs": [],
      "stateMutability": "nonpayable",
      "type": "function"
    },
    {
      "inputs": [
        {
          "internalType": "string",
          "name": "_newBaseExtension",
          "type": "string"
        }
      ],
      "name": "setBaseExtension",
      "outputs": [],
      "stateMutability": "nonpayable",
      "type": "function"
    },
    {
      "inputs": [
        {
          "internalType": "string",
          "name": "_newBaseURI",
          "type": "string"
        }
      ],
      "name": "setBaseURI",
      "outputs": [],
      "stateMutability": "nonpayable",
      "type": "function"
    },
    {
      "inputs": [
        {
          "internalType": "uint256",
          "name": "_newCost",
          "type": "uint256"
        }
      ],
      "name": "setCost",
      "outputs": [],
      "stateMutability": "nonpayable",
      "type": "function"
    },
    {
      "inputs": [
        {
          "internalType": "uint256",
          "name": "_newMaxSupply",
          "type": "uint256"
        }
      ],
      "name": "setMaxSupply",
      "outputs": [],
      "stateMutability": "nonpayable",
      "type": "function"
    },
    {
      "inputs": [
        {
          "internalType": "bytes4",
          "name": "interfaceId",
          "type": "bytes4"
        }
      ],
      "name": "supportsInterface",
      "outputs": [
        {
          "internalType": "bool",
          "name": "",
          "type": "bool"
        }
      ],
      "stateMutability": "view",
      "type": "function"
    },
    {
      "inputs": [],
      "name": "symbol",
      "outputs": [
        {
          "internalType": "string",
          "name": "",
          "type": "string"
        }
      ],
      "stateMutability": "view",
      "type": "function"
    },
    {
      "inputs": [
        {
          "internalType": "uint256",
          "name": "index",
          "type": "uint256"
        }
      ],
      "name": "tokenByIndex",
      "outputs": [
        {
          "internalType": "uint256",
          "name": "",
          "type": "uint256"
        }
      ],
      "stateMutability": "view",
      "type": "function"
    },
    {
      "inputs": [
        {
          "internalType": "address",
          "name": "owner",
          "type": "address"
        },
        {
          "internalType": "uint256",
          "name": "index",
          "type": "uint256"
        }
      ],
      "name": "tokenOfOwnerByIndex",
      "outputs": [
        {
          "internalType": "uint256",
          "name": "",
          "type": "uint256"
        }
      ],
      "stateMutability": "view",
      "type": "function"
    },
    {
      "inputs": [
        {
          "internalType": "uint256",
          "name": "tokenId",
          "type": "uint256"
        }
      ],
      "name": "tokenURI",
      "outputs": [
        {
          "internalType": "string",
          "name": "",
          "type": "string"
        }
      ],
      "stateMutability": "view",
      "type": "function"
    },
    {
      "inputs": [],
      "name": "totalSupply",
      "outputs": [
        {
          "internalType": "uint256",
          "name": "",
          "type": "uint256"
        }
      ],
      "stateMutability": "view",
      "type": "function"
    },
    {
      "inputs": [
        {
          "internalType": "address",
          "name": "newAdmin",
          "type": "address"
        }
      ],
      "name": "transferAdmin",
      "outputs": [],
      "stateMutability": "nonpayable",
      "type": "function"
    },
    {
      "inputs": [
        {
          "internalType": "address",
          "name": "from",
          "type": "address"
        },
        {
          "internalType": "address",
          "name": "to",
          "type": "address"
        },
        {
          "internalType": "uint256",
          "name": "tokenId",
          "type": "uint256"
        }
      ],
      "name": "transferFrom",
      "outputs": [],
      "stateMutability": "nonpayable",
      "type": "function"
    },
    {
      "inputs": [
        {
          "internalType": "address",
          "name": "newOwner",
          "type": "address"
        }
      ],
      "name": "transferOwnership",
      "outputs": [],
      "stateMutability": "nonpayable",
      "type": "function"
    },
    {
      "inputs": [],
      "name": "withdraw",
      "outputs": [],
      "stateMutability": "payable",
      "type": "function"
    }
  ],
  "bytecode": "0x60806040526040518060400160405280600581526020017f2e6a736f6e000000000000000000000000000000000000000000000000000000815250600e9080519060200190620000519291906200045c565b50662386f26fc10000600f55600a6010556000601160006101000a81548160ff0219169083151502179055503480156200008a57600080fd5b50604051620056dd380380620056dd8339818101604052810190620000b0919062000595565b8383838383838160009080519060200190620000ce9291906200045c565b508060019080519060200190620000e79291906200045c565b5050506200010a620000fe6200015a60201b60201c565b6200016260201b60201c565b6200012a6200011e6200015a60201b60201c565b6200022860201b60201c565b6200013b82620002ee60201b60201c565b6200014c816200039960201b60201c565b505050505050505062000863565b600033905090565b6000600a60009054906101000a900473ffffffffffffffffffffffffffffffffffffffff16905081600a60006101000a81548173ffffffffffffffffffffffffffffffffffffffff021916908373ffffffffffffffffffffffffffffffffffffffff1602179055508173ffffffffffffffffffffffffffffffffffffffff168173ffffffffffffffffffffffffffffffffffffffff167f8be0079c531659141344cd1fd0a4f28419497f9722a3daafe3b4186f6b6457e060405160405180910390a35050565b6000600b60009054906101000a900473ffffffffffffffffffffffffffffffffffffffff16905081600b60006101000a81548173ffffffffffffffffffffffffffffffffffffffff021916908373ffffffffffffffffffffffffffffffffffffffff1602179055508173ffffffffffffffffffffffffffffffffffffffff168173ffffffffffffffffffffffffffffffffffffffff167ff8ccb027dfcd135e000e9d45e6cc2d662578a8825d4c45b5e32e0adf67e79ec660405160405180910390a35050565b620002fe6200015a60201b60201c565b73ffffffffffffffffffffffffffffffffffffffff16620003246200043260201b60201c565b73ffffffffffffffffffffffffffffffffffffffff16146200037d576040517f08c379a0000000000000000000000000000000000000000000000000000000008152600401620003749062000673565b60405180910390fd5b80600d9080519060200190620003959291906200045c565b5050565b620003a96200015a60201b60201c565b73ffffffffffffffffffffffffffffffffffffffff16620003cf6200043260201b60201c565b73ffffffffffffffffffffffffffffffffffffffff161462000428576040517f08c379a00000000000000000000000000000000000000000000000000000000081526004016200041f9062000673565b60405180910390fd5b8060108190555050565b6000600a60009054906101000a900473ffffffffffffffffffffffffffffffffffffffff16905090565b8280546200046a9062000745565b90600052602060002090601f0160209004810192826200048e5760008555620004da565b82601f10620004a957805160ff1916838001178555620004da565b82800160010185558215620004da579182015b82811115620004d9578251825591602001919060010190620004bc565b5b509050620004e99190620004ed565b5090565b5b8082111562000508576000816000905550600101620004ee565b5090565b6000620005236200051d84620006be565b62000695565b9050828152602081018484840111156200053c57600080fd5b620005498482856200070f565b509392505050565b600082601f8301126200056357600080fd5b8151620005758482602086016200050c565b91505092915050565b6000815190506200058f8162000849565b92915050565b60008060008060808587031215620005ac57600080fd5b600085015167ffffffffffffffff811115620005c757600080fd5b620005d58782880162000551565b945050602085015167ffffffffffffffff811115620005f357600080fd5b620006018782880162000551565b935050604085015167ffffffffffffffff8111156200061f57600080fd5b6200062d8782880162000551565b925050606062000640878288016200057e565b91505092959194509250565b60006200065b602083620006f4565b9150620006688262000820565b602082019050919050565b600060208201905081810360008301526200068e816200064c565b9050919050565b6000620006a1620006b4565b9050620006af82826200077b565b919050565b6000604051905090565b600067ffffffffffffffff821115620006dc57620006db620007e0565b5b620006e7826200080f565b9050602081019050919050565b600082825260208201905092915050565b6000819050919050565b60005b838110156200072f57808201518184015260208101905062000712565b838111156200073f576000848401525b50505050565b600060028204905060018216806200075e57607f821691505b60208210811415620007755762000774620007b1565b5b50919050565b62000786826200080f565b810181811067ffffffffffffffff82111715620007a857620007a7620007e0565b5b80604052505050565b7f4e487b7100000000000000000000000000000000000000000000000000000000600052602260045260246000fd5b7f4e487b7100000000000000000000000000000000000000000000000000000000600052604160045260246000fd5b6000601f19601f8301169050919050565b7f4f776e61626c653a2063616c6c6572206973206e6f7420746865206f776e6572600082015250565b620008548162000705565b81146200086057600080fd5b50565b614e6a80620008736000396000f3fe60806040526004361061021a5760003560e01c80636f8b44b011610123578063b88d4fde116100ab578063e444bb461161006f578063e444bb46146107a2578063e985e9c5146107cb578063f2fde38b14610808578063f851a44014610831578063fce584051461085c5761021a565b8063b88d4fde146106bd578063c6682862146106e6578063c87b56dd14610711578063d5abeb011461074e578063da3ef23f146107795761021a565b80638d393b8f116100f25780638d393b8f146105e95780638da5cb5b1461061557806391132d8b1461064057806395d89b4114610669578063a22cb465146106945761021a565b80636f8b44b01461054357806370a082311461056c578063715018a6146105a957806375829def146105c05761021a565b80633ccfd60b116101a657806355f804b31161017557806355f804b31461046b5780635c975abb146104945780636352211e146104bf5780636a627842146104fc5780636c0360eb146105185761021a565b80633ccfd60b146103d257806342842e0e146103dc57806344a0d68a146104055780634f6ccce71461042e5761021a565b8063095ea7b3116101ed578063095ea7b3146102ed57806313faede61461031657806318160ddd1461034157806323b872dd1461036c5780632f745c59146103955761021a565b806301ffc9a71461021f57806302329a291461025c57806306fdde0314610285578063081812fc146102b0575b600080fd5b34801561022b57600080fd5b506102466004803603810190610241919061391a565b610899565b6040516102539190614077565b60405180910390f35b34801561026857600080fd5b50610283600480360381019061027e91906138f1565b610913565b005b34801561029157600080fd5b5061029a6109ac565b6040516102a79190614092565b60405180910390f35b3480156102bc57600080fd5b506102d760048036038101906102d291906139ad565b610a3e565b6040516102e49190613fd9565b60405180910390f35b3480156102f957600080fd5b50610314600480360381019061030f91906138b5565b610ac3565b005b34801561032257600080fd5b5061032b610bdb565b60405161033891906143b6565b60405180910390f35b34801561034d57600080fd5b50610356610be1565b60405161036391906143b6565b60405180910390f35b34801561037857600080fd5b50610393600480360381019061038e91906137af565b610bee565b005b3480156103a157600080fd5b506103bc60048036038101906103b791906138b5565b610c4e565b6040516103c991906143b6565b60405180910390f35b6103da610cf3565b005b3480156103e857600080fd5b5061040360048036038101906103fe91906137af565b610daf565b005b34801561041157600080fd5b5061042c600480360381019061042791906139ad565b610dcf565b005b34801561043a57600080fd5b50610455600480360381019061045091906139ad565b610e55565b60405161046291906143b6565b60405180910390f35b34801561047757600080fd5b50610492600480360381019061048d919061396c565b610eec565b005b3480156104a057600080fd5b506104a9610f82565b6040516104b69190614077565b60405180910390f35b3480156104cb57600080fd5b506104e660048036038101906104e191906139ad565b610f95565b6040516104f39190613fd9565b60405180910390f35b6105166004803603810190610511919061374a565b611047565b005b34801561052457600080fd5b5061052d611149565b60405161053a9190614092565b60405180910390f35b34801561054f57600080fd5b5061056a600480360381019061056591906139ad565b6111d7565b005b34801561057857600080fd5b50610593600480360381019061058e919061374a565b61125d565b6040516105a091906143b6565b60405180910390f35b3480156105b557600080fd5b506105be611315565b005b3480156105cc57600080fd5b506105e760048036038101906105e2919061374a565b61139d565b005b3480156105f557600080fd5b506105fe611495565b60405161060c929190614040565b60405180910390f35b34801561062157600080fd5b5061062a61178e565b6040516106379190613fd9565b60405180910390f35b34801561064c57600080fd5b50610667600480360381019061066291906139d6565b6117b8565b005b34801561067557600080fd5b5061067e61191f565b60405161068b9190614092565b60405180910390f35b3480156106a057600080fd5b506106bb60048036038101906106b69190613879565b6119b1565b005b3480156106c957600080fd5b506106e460048036038101906106df91906137fe565b6119c7565b005b3480156106f257600080fd5b506106fb611a29565b6040516107089190614092565b60405180910390f35b34801561071d57600080fd5b50610738600480360381019061073391906139ad565b611ab7565b6040516107459190614092565b60405180910390f35b34801561075a57600080fd5b50610763611b61565b60405161077091906143b6565b60405180910390f35b34801561078557600080fd5b506107a0600480360381019061079b919061396c565b611b67565b005b3480156107ae57600080fd5b506107c960048036038101906107c491906139d6565b611bfd565b005b3480156107d757600080fd5b506107f260048036038101906107ed9190613773565b611d64565b6040516107ff9190614077565b60405180910390f35b34801561081457600080fd5b5061082f600480360381019061082a919061374a565b611df8565b005b34801561083d57600080fd5b50610846611ef0565b6040516108539190613fd9565b60405180910390f35b34801561086857600080fd5b50610883600480360381019061087e91906139ad565b611f1a565b6040516108909190614394565b60405180910390f35b60007f780e9d63000000000000000000000000000000000000000000000000000000007bffffffffffffffffffffffffffffffffffffffffffffffffffffffff1916827bffffffffffffffffffffffffffffffffffffffffffffffffffffffff1916148061090c575061090b8261206b565b5b9050919050565b61091b61214d565b73ffffffffffffffffffffffffffffffffffffffff1661093961178e565b73ffffffffffffffffffffffffffffffffffffffff161461098f576040517f08c379a000000000000000000000000000000000000000000000000000000000815260040161098690614274565b60405180910390fd5b80601160006101000a81548160ff02191690831515021790555050565b6060600080546109bb9061466b565b80601f01602080910402602001604051908101604052809291908181526020018280546109e79061466b565b8015610a345780601f10610a0957610100808354040283529160200191610a34565b820191906000526020600020905b815481529060010190602001808311610a1757829003601f168201915b5050505050905090565b6000610a4982612155565b610a88576040517f08c379a0000000000000000000000000000000000000000000000000000000008152600401610a7f90614254565b60405180910390fd5b6004600083815260200190815260200160002060009054906101000a900473ffffffffffffffffffffffffffffffffffffffff169050919050565b6000610ace82610f95565b90508073ffffffffffffffffffffffffffffffffffffffff168373ffffffffffffffffffffffffffffffffffffffff161415610b3f576040517f08c379a0000000000000000000000000000000000000000000000000000000008152600401610b36906142d4565b60405180910390fd5b8073ffffffffffffffffffffffffffffffffffffffff16610b5e61214d565b73ffffffffffffffffffffffffffffffffffffffff161480610b8d5750610b8c81610b8761214d565b611d64565b5b610bcc576040517f08c379a0000000000000000000000000000000000000000000000000000000008152600401610bc3906141d4565b60405180910390fd5b610bd683836121c1565b505050565b600f5481565b6000600880549050905090565b610bff610bf961214d565b8261227a565b610c3e576040517f08c379a0000000000000000000000000000000000000000000000000000000008152600401610c35906142f4565b60405180910390fd5b610c49838383612358565b505050565b6000610c598361125d565b8210610c9a576040517f08c379a0000000000000000000000000000000000000000000000000000000008152600401610c91906140b4565b60405180910390fd5b600660008473ffffffffffffffffffffffffffffffffffffffff1673ffffffffffffffffffffffffffffffffffffffff168152602001908152602001600020600083815260200190815260200160002054905092915050565b610cfb61214d565b73ffffffffffffffffffffffffffffffffffffffff16610d1961178e565b73ffffffffffffffffffffffffffffffffffffffff1614610d6f576040517f08c379a0000000000000000000000000000000000000000000000000000000008152600401610d6690614274565b60405180910390fd5b3373ffffffffffffffffffffffffffffffffffffffff166108fc479081150290604051600060405180830381858888f19350505050610dad57600080fd5b565b610dca838383604051806020016040528060008152506119c7565b505050565b610dd761214d565b73ffffffffffffffffffffffffffffffffffffffff16610df561178e565b73ffffffffffffffffffffffffffffffffffffffff1614610e4b576040517f08c379a0000000000000000000000000000000000000000000000000000000008152600401610e4290614274565b60405180910390fd5b80600f8190555050565b6000610e5f610be1565b8210610ea0576040517f08c379a0000000000000000000000000000000000000000000000000000000008152600401610e9790614314565b60405180910390fd5b60088281548110610eda577f4e487b7100000000000000000000000000000000000000000000000000000000600052603260045260246000fd5b90600052602060002001549050919050565b610ef461214d565b73ffffffffffffffffffffffffffffffffffffffff16610f1261178e565b73ffffffffffffffffffffffffffffffffffffffff1614610f68576040517f08c379a0000000000000000000000000000000000000000000000000000000008152600401610f5f90614274565b60405180910390fd5b80600d9080519060200190610f7e929190613484565b5050565b601160009054906101000a900460ff1681565b6000806002600084815260200190815260200160002060009054906101000a900473ffffffffffffffffffffffffffffffffffffffff169050600073ffffffffffffffffffffffffffffffffffffffff168173ffffffffffffffffffffffffffffffffffffffff16141561103e576040517f08c379a000000000000000000000000000000000000000000000000000000000815260040161103590614214565b60405180910390fd5b80915050919050565b601160009054906101000a900460ff1615611097576040517f08c379a000000000000000000000000000000000000000000000000000000000815260040161108e90614354565b60405180910390fd5b600f543410156110dc576040517f08c379a00000000000000000000000000000000000000000000000000000000081526004016110d3906142b4565b60405180910390fd5b6010546110e9600c6125bf565b10611129576040517f08c379a0000000000000000000000000000000000000000000000000000000008152600401611120906141b4565b60405180910390fd5b61113c81611137600c6125bf565b6125cd565b611146600c6125eb565b50565b600d80546111569061466b565b80601f01602080910402602001604051908101604052809291908181526020018280546111829061466b565b80156111cf5780601f106111a4576101008083540402835291602001916111cf565b820191906000526020600020905b8154815290600101906020018083116111b257829003601f168201915b505050505081565b6111df61214d565b73ffffffffffffffffffffffffffffffffffffffff166111fd61178e565b73ffffffffffffffffffffffffffffffffffffffff1614611253576040517f08c379a000000000000000000000000000000000000000000000000000000000815260040161124a90614274565b60405180910390fd5b8060108190555050565b60008073ffffffffffffffffffffffffffffffffffffffff168273ffffffffffffffffffffffffffffffffffffffff1614156112ce576040517f08c379a00000000000000000000000000000000000000000000000000000000081526004016112c5906141f4565b60405180910390fd5b600360008373ffffffffffffffffffffffffffffffffffffffff1673ffffffffffffffffffffffffffffffffffffffff168152602001908152602001600020549050919050565b61131d61214d565b73ffffffffffffffffffffffffffffffffffffffff1661133b61178e565b73ffffffffffffffffffffffffffffffffffffffff1614611391576040517f08c379a000000000000000000000000000000000000000000000000000000000815260040161138890614274565b60405180910390fd5b61139b6000612601565b565b6113a561214d565b73ffffffffffffffffffffffffffffffffffffffff166113c361178e565b73ffffffffffffffffffffffffffffffffffffffff1614611419576040517f08c379a000000000000000000000000000000000000000000000000000000000815260040161141090614274565b60405180910390fd5b600073ffffffffffffffffffffffffffffffffffffffff168173ffffffffffffffffffffffffffffffffffffffff161415611489576040517f08c379a0000000000000000000000000000000000000000000000000000000008152600401611480906140f4565b60405180910390fd5b611492816126c7565b50565b60608060006114a2610be1565b67ffffffffffffffff8111156114e1577f4e487b7100000000000000000000000000000000000000000000000000000000600052604160045260246000fd5b60405190808252806020026020018201604052801561151457816020015b60608152602001906001900390816114ff5790505b5090506000611521610be1565b67ffffffffffffffff811115611560577f4e487b7100000000000000000000000000000000000000000000000000000000600052604160045260246000fd5b60405190808252806020026020018201604052801561159357816020015b606081526020019060019003908161157e5790505b50905060005b6115a1610be1565b811015611781576012600082815260200190815260200160002060000180546115c99061466b565b80601f01602080910402602001604051908101604052809291908181526020018280546115f59061466b565b80156116425780601f1061161757610100808354040283529160200191611642565b820191906000526020600020905b81548152906001019060200180831161162557829003601f168201915b5050505050838281518110611680577f4e487b7100000000000000000000000000000000000000000000000000000000600052603260045260246000fd5b60200260200101819052506012600082815260200190815260200160002060010180546116ac9061466b565b80601f01602080910402602001604051908101604052809291908181526020018280546116d89061466b565b80156117255780601f106116fa57610100808354040283529160200191611725565b820191906000526020600020905b81548152906001019060200180831161170857829003601f168201915b5050505050828281518110611763577f4e487b7100000000000000000000000000000000000000000000000000000000600052603260045260246000fd5b60200260200101819052508080611779906146ce565b915050611599565b5081819350935050509091565b6000600a60009054906101000a900473ffffffffffffffffffffffffffffffffffffffff16905090565b826117c281610f95565b73ffffffffffffffffffffffffffffffffffffffff163373ffffffffffffffffffffffffffffffffffffffff16148061182d57506117fe611ef0565b73ffffffffffffffffffffffffffffffffffffffff163373ffffffffffffffffffffffffffffffffffffffff16145b8061186a575061183b61178e565b73ffffffffffffffffffffffffffffffffffffffff163373ffffffffffffffffffffffffffffffffffffffff16145b6118a9576040517f08c379a00000000000000000000000000000000000000000000000000000000081526004016118a090614374565b60405180910390fd5b6118b1610be1565b8411156118f3576040517f08c379a00000000000000000000000000000000000000000000000000000000081526004016118ea90614334565b60405180910390fd5b828260126000878152602001908152602001600020600101919061191892919061350a565b5050505050565b60606001805461192e9061466b565b80601f016020809104026020016040519081016040528092919081815260200182805461195a9061466b565b80156119a75780601f1061197c576101008083540402835291602001916119a7565b820191906000526020600020905b81548152906001019060200180831161198a57829003601f168201915b5050505050905090565b6119c36119bc61214d565b838361278d565b5050565b6119d86119d261214d565b8361227a565b611a17576040517f08c379a0000000000000000000000000000000000000000000000000000000008152600401611a0e906142f4565b60405180910390fd5b611a23848484846128fa565b50505050565b600e8054611a369061466b565b80601f0160208091040260200160405190810160405280929190818152602001828054611a629061466b565b8015611aaf5780601f10611a8457610100808354040283529160200191611aaf565b820191906000526020600020905b815481529060010190602001808311611a9257829003601f168201915b505050505081565b6060611ac282612155565b611b01576040517f08c379a0000000000000000000000000000000000000000000000000000000008152600401611af890614294565b60405180910390fd5b6000611b0b612956565b90506000815111611b2b5760405180602001604052806000815250611b59565b80611b35846129e8565b600e604051602001611b4993929190613fa8565b6040516020818303038152906040525b915050919050565b60105481565b611b6f61214d565b73ffffffffffffffffffffffffffffffffffffffff16611b8d61178e565b73ffffffffffffffffffffffffffffffffffffffff1614611be3576040517f08c379a0000000000000000000000000000000000000000000000000000000008152600401611bda90614274565b60405180910390fd5b80600e9080519060200190611bf9929190613484565b5050565b82611c0781610f95565b73ffffffffffffffffffffffffffffffffffffffff163373ffffffffffffffffffffffffffffffffffffffff161480611c725750611c43611ef0565b73ffffffffffffffffffffffffffffffffffffffff163373ffffffffffffffffffffffffffffffffffffffff16145b80611caf5750611c8061178e565b73ffffffffffffffffffffffffffffffffffffffff163373ffffffffffffffffffffffffffffffffffffffff16145b611cee576040517f08c379a0000000000000000000000000000000000000000000000000000000008152600401611ce590614374565b60405180910390fd5b611cf6610be1565b841115611d38576040517f08c379a0000000000000000000000000000000000000000000000000000000008152600401611d2f90614334565b60405180910390fd5b8282601260008781526020019081526020016000206000019190611d5d92919061350a565b5050505050565b6000600560008473ffffffffffffffffffffffffffffffffffffffff1673ffffffffffffffffffffffffffffffffffffffff16815260200190815260200160002060008373ffffffffffffffffffffffffffffffffffffffff1673ffffffffffffffffffffffffffffffffffffffff16815260200190815260200160002060009054906101000a900460ff16905092915050565b611e0061214d565b73ffffffffffffffffffffffffffffffffffffffff16611e1e61178e565b73ffffffffffffffffffffffffffffffffffffffff1614611e74576040517f08c379a0000000000000000000000000000000000000000000000000000000008152600401611e6b90614274565b60405180910390fd5b600073ffffffffffffffffffffffffffffffffffffffff168173ffffffffffffffffffffffffffffffffffffffff161415611ee4576040517f08c379a0000000000000000000000000000000000000000000000000000000008152600401611edb906140f4565b60405180910390fd5b611eed81612601565b50565b6000600b60009054906101000a900473ffffffffffffffffffffffffffffffffffffffff16905090565b611f22613590565b60126000838152602001908152602001600020604051806040016040529081600082018054611f509061466b565b80601f0160208091040260200160405190810160405280929190818152602001828054611f7c9061466b565b8015611fc95780601f10611f9e57610100808354040283529160200191611fc9565b820191906000526020600020905b815481529060010190602001808311611fac57829003601f168201915b50505050508152602001600182018054611fe29061466b565b80601f016020809104026020016040519081016040528092919081815260200182805461200e9061466b565b801561205b5780601f106120305761010080835404028352916020019161205b565b820191906000526020600020905b81548152906001019060200180831161203e57829003601f168201915b5050505050815250509050919050565b60007f80ac58cd000000000000000000000000000000000000000000000000000000007bffffffffffffffffffffffffffffffffffffffffffffffffffffffff1916827bffffffffffffffffffffffffffffffffffffffffffffffffffffffff1916148061213657507f5b5e139f000000000000000000000000000000000000000000000000000000007bffffffffffffffffffffffffffffffffffffffffffffffffffffffff1916827bffffffffffffffffffffffffffffffffffffffffffffffffffffffff1916145b80612146575061214582612b95565b5b9050919050565b600033905090565b60008073ffffffffffffffffffffffffffffffffffffffff166002600084815260200190815260200160002060009054906101000a900473ffffffffffffffffffffffffffffffffffffffff1673ffffffffffffffffffffffffffffffffffffffff1614159050919050565b816004600083815260200190815260200160002060006101000a81548173ffffffffffffffffffffffffffffffffffffffff021916908373ffffffffffffffffffffffffffffffffffffffff160217905550808273ffffffffffffffffffffffffffffffffffffffff1661223483610f95565b73ffffffffffffffffffffffffffffffffffffffff167f8c5be1e5ebec7d5bd14f71427d1e84f3dd0314c0f7b2291e5b200ac8c7c3b92560405160405180910390a45050565b600061228582612155565b6122c4576040517f08c379a00000000000000000000000000000000000000000000000000000000081526004016122bb90614194565b60405180910390fd5b60006122cf83610f95565b90508073ffffffffffffffffffffffffffffffffffffffff168473ffffffffffffffffffffffffffffffffffffffff16148061233e57508373ffffffffffffffffffffffffffffffffffffffff1661232684610a3e565b73ffffffffffffffffffffffffffffffffffffffff16145b8061234f575061234e8185611d64565b5b91505092915050565b8273ffffffffffffffffffffffffffffffffffffffff1661237882610f95565b73ffffffffffffffffffffffffffffffffffffffff16146123ce576040517f08c379a00000000000000000000000000000000000000000000000000000000081526004016123c590614114565b60405180910390fd5b600073ffffffffffffffffffffffffffffffffffffffff168273ffffffffffffffffffffffffffffffffffffffff16141561243e576040517f08c379a000000000000000000000000000000000000000000000000000000000815260040161243590614154565b60405180910390fd5b612449838383612bff565b6124546000826121c1565b6001600360008573ffffffffffffffffffffffffffffffffffffffff1673ffffffffffffffffffffffffffffffffffffffff16815260200190815260200160002060008282546124a49190614581565b925050819055506001600360008473ffffffffffffffffffffffffffffffffffffffff1673ffffffffffffffffffffffffffffffffffffffff16815260200190815260200160002060008282546124fb91906144fa565b92505081905550816002600083815260200190815260200160002060006101000a81548173ffffffffffffffffffffffffffffffffffffffff021916908373ffffffffffffffffffffffffffffffffffffffff160217905550808273ffffffffffffffffffffffffffffffffffffffff168473ffffffffffffffffffffffffffffffffffffffff167fddf252ad1be2c89b69c2b068fc378daa952ba7f163c4a11628f55a4df523b3ef60405160405180910390a46125ba838383612d13565b505050565b600081600001549050919050565b6125e7828260405180602001604052806000815250612d18565b5050565b6001816000016000828254019250508190555050565b6000600a60009054906101000a900473ffffffffffffffffffffffffffffffffffffffff16905081600a60006101000a81548173ffffffffffffffffffffffffffffffffffffffff021916908373ffffffffffffffffffffffffffffffffffffffff1602179055508173ffffffffffffffffffffffffffffffffffffffff168173ffffffffffffffffffffffffffffffffffffffff167f8be0079c531659141344cd1fd0a4f28419497f9722a3daafe3b4186f6b6457e060405160405180910390a35050565b6000600b60009054906101000a900473ffffffffffffffffffffffffffffffffffffffff16905081600b60006101000a81548173ffffffffffffffffffffffffffffffffffffffff021916908373ffffffffffffffffffffffffffffffffffffffff1602179055508173ffffffffffffffffffffffffffffffffffffffff168173ffffffffffffffffffffffffffffffffffffffff167ff8ccb027dfcd135e000e9d45e6cc2d662578a8825d4c45b5e32e0adf67e79ec660405160405180910390a35050565b8173ffffffffffffffffffffffffffffffffffffffff168373ffffffffffffffffffffffffffffffffffffffff1614156127fc576040517f08c379a00000000000000000000000000000000000000000000000000000000081526004016127f390614174565b60405180910390fd5b80600560008573ffffffffffffffffffffffffffffffffffffffff1673ffffffffffffffffffffffffffffffffffffffff16815260200190815260200160002060008473ffffffffffffffffffffffffffffffffffffffff1673ffffffffffffffffffffffffffffffffffffffff16815260200190815260200160002060006101000a81548160ff0219169083151502179055508173ffffffffffffffffffffffffffffffffffffffff168373ffffffffffffffffffffffffffffffffffffffff167f17307eab39ab6107e8899845ad3d59bd9653f200f220920489ca2b5937696c31836040516128ed9190614077565b60405180910390a3505050565b612905848484612358565b61291184848484612d73565b612950576040517f08c379a0000000000000000000000000000000000000000000000000000000008152600401612947906140d4565b60405180910390fd5b50505050565b6060600d80546129659061466b565b80601f01602080910402602001604051908101604052809291908181526020018280546129919061466b565b80156129de5780601f106129b3576101008083540402835291602001916129de565b820191906000526020600020905b8154815290600101906020018083116129c157829003601f168201915b5050505050905090565b60606000821415612a30576040518060400160405280600181526020017f30000000000000000000000000000000000000000000000000000000000000008152509050612b90565b600082905060005b60008214612a62578080612a4b906146ce565b915050600a82612a5b9190614550565b9150612a38565b60008167ffffffffffffffff811115612aa4577f4e487b7100000000000000000000000000000000000000000000000000000000600052604160045260246000fd5b6040519080825280601f01601f191660200182016040528015612ad65781602001600182028036833780820191505090505b5090505b60008514612b8957600182612aef9190614581565b9150600a85612afe9190614717565b6030612b0a91906144fa565b60f81b818381518110612b46577f4e487b7100000000000000000000000000000000000000000000000000000000600052603260045260246000fd5b60200101907effffffffffffffffffffffffffffffffffffffffffffffffffffffffffffff1916908160001a905350600a85612b829190614550565b9450612ada565b8093505050505b919050565b60007f01ffc9a7000000000000000000000000000000000000000000000000000000007bffffffffffffffffffffffffffffffffffffffffffffffffffffffff1916827bffffffffffffffffffffffffffffffffffffffffffffffffffffffff1916149050919050565b612c0a838383612f0a565b600073ffffffffffffffffffffffffffffffffffffffff168373ffffffffffffffffffffffffffffffffffffffff161415612c4d57612c4881612f0f565b612c8c565b8173ffffffffffffffffffffffffffffffffffffffff168373ffffffffffffffffffffffffffffffffffffffff1614612c8b57612c8a8382612f58565b5b5b600073ffffffffffffffffffffffffffffffffffffffff168273ffffffffffffffffffffffffffffffffffffffff161415612ccf57612cca816130c5565b612d0e565b8273ffffffffffffffffffffffffffffffffffffffff168273ffffffffffffffffffffffffffffffffffffffff1614612d0d57612d0c8282613208565b5b5b505050565b505050565b612d228383613287565b612d2f6000848484612d73565b612d6e576040517f08c379a0000000000000000000000000000000000000000000000000000000008152600401612d65906140d4565b60405180910390fd5b505050565b6000612d948473ffffffffffffffffffffffffffffffffffffffff16613461565b15612efd578373ffffffffffffffffffffffffffffffffffffffff1663150b7a02612dbd61214d565b8786866040518563ffffffff1660e01b8152600401612ddf9493929190613ff4565b602060405180830381600087803b158015612df957600080fd5b505af1925050508015612e2a57506040513d601f19601f82011682018060405250810190612e279190613943565b60015b612ead573d8060008114612e5a576040519150601f19603f3d011682016040523d82523d6000602084013e612e5f565b606091505b50600081511415612ea5576040517f08c379a0000000000000000000000000000000000000000000000000000000008152600401612e9c906140d4565b60405180910390fd5b805181602001fd5b63150b7a0260e01b7bffffffffffffffffffffffffffffffffffffffffffffffffffffffff1916817bffffffffffffffffffffffffffffffffffffffffffffffffffffffff191614915050612f02565b600190505b949350505050565b505050565b6008805490506009600083815260200190815260200160002081905550600881908060018154018082558091505060019003906000526020600020016000909190919091505550565b60006001612f658461125d565b612f6f9190614581565b9050600060076000848152602001908152602001600020549050818114613054576000600660008673ffffffffffffffffffffffffffffffffffffffff1673ffffffffffffffffffffffffffffffffffffffff168152602001908152602001600020600084815260200190815260200160002054905080600660008773ffffffffffffffffffffffffffffffffffffffff1673ffffffffffffffffffffffffffffffffffffffff168152602001908152602001600020600084815260200190815260200160002081905550816007600083815260200190815260200160002081905550505b6007600084815260200190815260200160002060009055600660008573ffffffffffffffffffffffffffffffffffffffff1673ffffffffffffffffffffffffffffffffffffffff16815260200190815260200160002060008381526020019081526020016000206000905550505050565b600060016008805490506130d99190614581565b905060006009600084815260200190815260200160002054905060006008838154811061312f577f4e487b7100000000000000000000000000000000000000000000000000000000600052603260045260246000fd5b906000526020600020015490508060088381548110613177577f4e487b7100000000000000000000000000000000000000000000000000000000600052603260045260246000fd5b9060005260206000200181905550816009600083815260200190815260200160002081905550600960008581526020019081526020016000206000905560088054806131ec577f4e487b7100000000000000000000000000000000000000000000000000000000600052603160045260246000fd5b6001900381819060005260206000200160009055905550505050565b60006132138361125d565b905081600660008573ffffffffffffffffffffffffffffffffffffffff1673ffffffffffffffffffffffffffffffffffffffff168152602001908152602001600020600083815260200190815260200160002081905550806007600084815260200190815260200160002081905550505050565b600073ffffffffffffffffffffffffffffffffffffffff168273ffffffffffffffffffffffffffffffffffffffff1614156132f7576040517f08c379a00000000000000000000000000000000000000000000000000000000081526004016132ee90614234565b60405180910390fd5b61330081612155565b15613340576040517f08c379a000000000000000000000000000000000000000000000000000000000815260040161333790614134565b60405180910390fd5b61334c60008383612bff565b6001600360008473ffffffffffffffffffffffffffffffffffffffff1673ffffffffffffffffffffffffffffffffffffffff168152602001908152602001600020600082825461339c91906144fa565b92505081905550816002600083815260200190815260200160002060006101000a81548173ffffffffffffffffffffffffffffffffffffffff021916908373ffffffffffffffffffffffffffffffffffffffff160217905550808273ffffffffffffffffffffffffffffffffffffffff16600073ffffffffffffffffffffffffffffffffffffffff167fddf252ad1be2c89b69c2b068fc378daa952ba7f163c4a11628f55a4df523b3ef60405160405180910390a461345d60008383612d13565b5050565b6000808273ffffffffffffffffffffffffffffffffffffffff163b119050919050565b8280546134909061466b565b90600052602060002090601f0160209004810192826134b257600085556134f9565b82601f106134cb57805160ff19168380011785556134f9565b828001600101855582156134f9579182015b828111156134f85782518255916020019190600101906134dd565b5b50905061350691906135aa565b5090565b8280546135169061466b565b90600052602060002090601f016020900481019282613538576000855561357f565b82601f1061355157803560ff191683800117855561357f565b8280016001018555821561357f579182015b8281111561357e578235825591602001919060010190613563565b5b50905061358c91906135aa565b5090565b604051806040016040528060608152602001606081525090565b5b808211156135c35760008160009055506001016135ab565b5090565b60006135da6135d5846143f6565b6143d1565b9050828152602081018484840111156135f257600080fd5b6135fd848285614629565b509392505050565b600061361861361384614427565b6143d1565b90508281526020810184848401111561363057600080fd5b61363b848285614629565b509392505050565b60008135905061365281614dd8565b92915050565b60008135905061366781614def565b92915050565b60008135905061367c81614e06565b92915050565b60008151905061369181614e06565b92915050565b600082601f8301126136a857600080fd5b81356136b88482602086016135c7565b91505092915050565b60008083601f8401126136d357600080fd5b8235905067ffffffffffffffff8111156136ec57600080fd5b60208301915083600182028301111561370457600080fd5b9250929050565b600082601f83011261371c57600080fd5b813561372c848260208601613605565b91505092915050565b60008135905061374481614e1d565b92915050565b60006020828403121561375c57600080fd5b600061376a84828501613643565b91505092915050565b6000806040838503121561378657600080fd5b600061379485828601613643565b92505060206137a585828601613643565b9150509250929050565b6000806000606084860312156137c457600080fd5b60006137d286828701613643565b93505060206137e386828701613643565b92505060406137f486828701613735565b9150509250925092565b6000806000806080858703121561381457600080fd5b600061382287828801613643565b945050602061383387828801613643565b935050604061384487828801613735565b925050606085013567ffffffffffffffff81111561386157600080fd5b61386d87828801613697565b91505092959194509250565b6000806040838503121561388c57600080fd5b600061389a85828601613643565b92505060206138ab85828601613658565b9150509250929050565b600080604083850312156138c857600080fd5b60006138d685828601613643565b92505060206138e785828601613735565b9150509250929050565b60006020828403121561390357600080fd5b600061391184828501613658565b91505092915050565b60006020828403121561392c57600080fd5b600061393a8482850161366d565b91505092915050565b60006020828403121561395557600080fd5b600061396384828501613682565b91505092915050565b60006020828403121561397e57600080fd5b600082013567ffffffffffffffff81111561399857600080fd5b6139a48482850161370b565b91505092915050565b6000602082840312156139bf57600080fd5b60006139cd84828501613735565b91505092915050565b6000806000604084860312156139eb57600080fd5b60006139f986828701613735565b935050602084013567ffffffffffffffff811115613a1657600080fd5b613a22868287016136c1565b92509250509250925092565b6000613a3a8383613b0e565b905092915050565b613a4b816145b5565b82525050565b6000613a5c8261447d565b613a6681856144ab565b935083602082028501613a7885614458565b8060005b85811015613ab45784840389528151613a958582613a2e565b9450613aa08361449e565b925060208a01995050600181019050613a7c565b50829750879550505050505092915050565b613acf816145c7565b82525050565b6000613ae082614488565b613aea81856144bc565b9350613afa818560208601614638565b613b0381614804565b840191505092915050565b6000613b1982614493565b613b2381856144cd565b9350613b33818560208601614638565b613b3c81614804565b840191505092915050565b6000613b5282614493565b613b5c81856144de565b9350613b6c818560208601614638565b613b7581614804565b840191505092915050565b6000613b8b82614493565b613b9581856144ef565b9350613ba5818560208601614638565b80840191505092915050565b60008154613bbe8161466b565b613bc881866144ef565b94506001821660008114613be35760018114613bf457613c27565b60ff19831686528186019350613c27565b613bfd85614468565b60005b83811015613c1f57815481890152600182019150602081019050613c00565b838801955050505b50505092915050565b6000613c3d602b836144de565b9150613c4882614815565b604082019050919050565b6000613c606032836144de565b9150613c6b82614864565b604082019050919050565b6000613c836026836144de565b9150613c8e826148b3565b604082019050919050565b6000613ca66025836144de565b9150613cb182614902565b604082019050919050565b6000613cc9601c836144de565b9150613cd482614951565b602082019050919050565b6000613cec6024836144de565b9150613cf78261497a565b604082019050919050565b6000613d0f6019836144de565b9150613d1a826149c9565b602082019050919050565b6000613d32602c836144de565b9150613d3d826149f2565b604082019050919050565b6000613d55600a836144de565b9150613d6082614a41565b602082019050919050565b6000613d786038836144de565b9150613d8382614a6a565b604082019050919050565b6000613d9b602a836144de565b9150613da682614ab9565b604082019050919050565b6000613dbe6029836144de565b9150613dc982614b08565b604082019050919050565b6000613de16020836144de565b9150613dec82614b57565b602082019050919050565b6000613e04602c836144de565b9150613e0f82614b80565b604082019050919050565b6000613e276020836144de565b9150613e3282614bcf565b602082019050919050565b6000613e4a602f836144de565b9150613e5582614bf8565b604082019050919050565b6000613e6d6011836144de565b9150613e7882614c47565b602082019050919050565b6000613e906021836144de565b9150613e9b82614c70565b604082019050919050565b6000613eb36031836144de565b9150613ebe82614cbf565b604082019050919050565b6000613ed6602c836144de565b9150613ee182614d0e565b604082019050919050565b6000613ef9600f836144de565b9150613f0482614d5d565b602082019050919050565b6000613f1c6012836144de565b9150613f2782614d86565b602082019050919050565b6000613f3f600e836144de565b9150613f4a82614daf565b602082019050919050565b60006040830160008301518482036000860152613f728282613b0e565b91505060208301518482036020860152613f8c8282613b0e565b9150508091505092915050565b613fa28161461f565b82525050565b6000613fb48286613b80565b9150613fc08285613b80565b9150613fcc8284613bb1565b9150819050949350505050565b6000602082019050613fee6000830184613a42565b92915050565b60006080820190506140096000830187613a42565b6140166020830186613a42565b6140236040830185613f99565b81810360608301526140358184613ad5565b905095945050505050565b6000604082019050818103600083015261405a8185613a51565b9050818103602083015261406e8184613a51565b90509392505050565b600060208201905061408c6000830184613ac6565b92915050565b600060208201905081810360008301526140ac8184613b47565b905092915050565b600060208201905081810360008301526140cd81613c30565b9050919050565b600060208201905081810360008301526140ed81613c53565b9050919050565b6000602082019050818103600083015261410d81613c76565b9050919050565b6000602082019050818103600083015261412d81613c99565b9050919050565b6000602082019050818103600083015261414d81613cbc565b9050919050565b6000602082019050818103600083015261416d81613cdf565b9050919050565b6000602082019050818103600083015261418d81613d02565b9050919050565b600060208201905081810360008301526141ad81613d25565b9050919050565b600060208201905081810360008301526141cd81613d48565b9050919050565b600060208201905081810360008301526141ed81613d6b565b9050919050565b6000602082019050818103600083015261420d81613d8e565b9050919050565b6000602082019050818103600083015261422d81613db1565b9050919050565b6000602082019050818103600083015261424d81613dd4565b9050919050565b6000602082019050818103600083015261426d81613df7565b9050919050565b6000602082019050818103600083015261428d81613e1a565b9050919050565b600060208201905081810360008301526142ad81613e3d565b9050919050565b600060208201905081810360008301526142cd81613e60565b9050919050565b600060208201905081810360008301526142ed81613e83565b9050919050565b6000602082019050818103600083015261430d81613ea6565b9050919050565b6000602082019050818103600083015261432d81613ec9565b9050919050565b6000602082019050818103600083015261434d81613eec565b9050919050565b6000602082019050818103600083015261436d81613f0f565b9050919050565b6000602082019050818103600083015261438d81613f32565b9050919050565b600060208201905081810360008301526143ae8184613f55565b905092915050565b60006020820190506143cb6000830184613f99565b92915050565b60006143db6143ec565b90506143e7828261469d565b919050565b6000604051905090565b600067ffffffffffffffff821115614411576144106147d5565b5b61441a82614804565b9050602081019050919050565b600067ffffffffffffffff821115614442576144416147d5565b5b61444b82614804565b9050602081019050919050565b6000819050602082019050919050565b60008190508160005260206000209050919050565b600081519050919050565b600081519050919050565b600081519050919050565b6000602082019050919050565b600082825260208201905092915050565b600082825260208201905092915050565b600082825260208201905092915050565b600082825260208201905092915050565b600081905092915050565b60006145058261461f565b91506145108361461f565b9250827fffffffffffffffffffffffffffffffffffffffffffffffffffffffffffffffff0382111561454557614544614748565b5b828201905092915050565b600061455b8261461f565b91506145668361461f565b92508261457657614575614777565b5b828204905092915050565b600061458c8261461f565b91506145978361461f565b9250828210156145aa576145a9614748565b5b828203905092915050565b60006145c0826145ff565b9050919050565b60008115159050919050565b60007fffffffff0000000000000000000000000000000000000000000000000000000082169050919050565b600073ffffffffffffffffffffffffffffffffffffffff82169050919050565b6000819050919050565b82818337600083830152505050565b60005b8381101561465657808201518184015260208101905061463b565b83811115614665576000848401525b50505050565b6000600282049050600182168061468357607f821691505b60208210811415614697576146966147a6565b5b50919050565b6146a682614804565b810181811067ffffffffffffffff821117156146c5576146c46147d5565b5b80604052505050565b60006146d98261461f565b91507fffffffffffffffffffffffffffffffffffffffffffffffffffffffffffffffff82141561470c5761470b614748565b5b600182019050919050565b60006147228261461f565b915061472d8361461f565b92508261473d5761473c614777565b5b828206905092915050565b7f4e487b7100000000000000000000000000000000000000000000000000000000600052601160045260246000fd5b7f4e487b7100000000000000000000000000000000000000000000000000000000600052601260045260246000fd5b7f4e487b7100000000000000000000000000000000000000000000000000000000600052602260045260246000fd5b7f4e487b7100000000000000000000000000000000000000000000000000000000600052604160045260246000fd5b6000601f19601f8301169050919050565b7f455243373231456e756d657261626c653a206f776e657220696e646578206f7560008201527f74206f6620626f756e6473000000000000000000000000000000000000000000602082015250565b7f4552433732313a207472616e7366657220746f206e6f6e20455243373231526560008201527f63656976657220696d706c656d656e7465720000000000000000000000000000602082015250565b7f4f776e61626c653a206e6577206f776e657220697320746865207a65726f206160008201527f6464726573730000000000000000000000000000000000000000000000000000602082015250565b7f4552433732313a207472616e736665722066726f6d20696e636f72726563742060008201527f6f776e6572000000000000000000000000000000000000000000000000000000602082015250565b7f4552433732313a20746f6b656e20616c7265616479206d696e74656400000000600082015250565b7f4552433732313a207472616e7366657220746f20746865207a65726f2061646460008201527f7265737300000000000000000000000000000000000000000000000000000000602082015250565b7f4552433732313a20617070726f766520746f2063616c6c657200000000000000600082015250565b7f4552433732313a206f70657261746f7220717565727920666f72206e6f6e657860008201527f697374656e7420746f6b656e0000000000000000000000000000000000000000602082015250565b7f4d617820737570706c7900000000000000000000000000000000000000000000600082015250565b7f4552433732313a20617070726f76652063616c6c6572206973206e6f74206f7760008201527f6e6572206e6f7220617070726f76656420666f7220616c6c0000000000000000602082015250565b7f4552433732313a2062616c616e636520717565727920666f7220746865207a6560008201527f726f206164647265737300000000000000000000000000000000000000000000602082015250565b7f4552433732313a206f776e657220717565727920666f72206e6f6e657869737460008201527f656e7420746f6b656e0000000000000000000000000000000000000000000000602082015250565b7f4552433732313a206d696e7420746f20746865207a65726f2061646472657373600082015250565b7f4552433732313a20617070726f76656420717565727920666f72206e6f6e657860008201527f697374656e7420746f6b656e0000000000000000000000000000000000000000602082015250565b7f4f776e61626c653a2063616c6c6572206973206e6f7420746865206f776e6572600082015250565b7f4552433732314d657461646174613a2055524920717565727920666f72206e6f60008201527f6e6578697374656e7420746f6b656e0000000000000000000000000000000000602082015250565b7f4e6f7420656e6f75676874206d6f6e6579000000000000000000000000000000600082015250565b7f4552433732313a20617070726f76616c20746f2063757272656e74206f776e6560008201527f7200000000000000000000000000000000000000000000000000000000000000602082015250565b7f4552433732313a207472616e736665722063616c6c6572206973206e6f74206f60008201527f776e6572206e6f7220617070726f766564000000000000000000000000000000602082015250565b7f455243373231456e756d657261626c653a20676c6f62616c20696e646578206f60008201527f7574206f6620626f756e64730000000000000000000000000000000000000000602082015250565b7f4e465420646f6e27742065786973740000000000000000000000000000000000600082015250565b7f436f6e7472616374206973207061757365640000000000000000000000000000600082015250565b7f4e6f7420617574686f72697a6564000000000000000000000000000000000000600082015250565b614de1816145b5565b8114614dec57600080fd5b50565b614df8816145c7565b8114614e0357600080fd5b50565b614e0f816145d3565b8114614e1a57600080fd5b50565b614e268161461f565b8114614e3157600080fd5b5056fea2646970667358221220cd2d8408005481f02467fd094188a22d792c5b89180d714e4b9e82b95bd1546c64736f6c63430008010033",
  "linkReferences": {},
  "deployedLinkReferences": {}
}